{
	"IoTDataStorage.sol": {
		"IoTDataStorage": {
			"abi": [
				{
					"inputs": [],
					"stateMutability": "nonpayable",
					"type": "constructor"
				},
				{
					"anonymous": false,
					"inputs": [
						{
							"indexed": false,
							"internalType": "uint256",
							"name": "timestamp",
							"type": "uint256"
						},
						{
							"indexed": false,
							"internalType": "string",
							"name": "deviceId",
							"type": "string"
						},
						{
							"indexed": false,
							"internalType": "string",
							"name": "dataType",
							"type": "string"
						},
						{
							"indexed": false,
							"internalType": "string",
							"name": "dataValue",
							"type": "string"
						}
					],
					"name": "DataStored",
					"type": "event"
				},
				{
					"inputs": [],
					"name": "MAX_ENTRIES",
					"outputs": [
						{
							"internalType": "uint256",
							"name": "",
							"type": "uint256"
						}
					],
					"stateMutability": "view",
					"type": "function"
				},
				{
					"inputs": [
						{
							"internalType": "uint256",
							"name": "",
							"type": "uint256"
						}
					],
					"name": "dataRecords",
					"outputs": [
						{
							"internalType": "uint256",
							"name": "timestamp",
							"type": "uint256"
						},
						{
							"internalType": "string",
							"name": "deviceId",
							"type": "string"
						},
						{
							"internalType": "string",
							"name": "dataType",
							"type": "string"
						},
						{
							"internalType": "string",
							"name": "dataValue",
							"type": "string"
						}
					],
					"stateMutability": "view",
					"type": "function"
				},
				{
					"inputs": [
						{
							"internalType": "uint256",
							"name": "index",
							"type": "uint256"
						}
					],
					"name": "getRecord",
					"outputs": [
						{
							"internalType": "uint256",
							"name": "",
							"type": "uint256"
						},
						{
							"internalType": "string",
							"name": "",
							"type": "string"
						},
						{
							"internalType": "string",
							"name": "",
							"type": "string"
						},
						{
							"internalType": "string",
							"name": "",
							"type": "string"
						}
					],
					"stateMutability": "view",
					"type": "function"
				},
				{
					"inputs": [],
					"name": "getTotalRecords",
					"outputs": [
						{
							"internalType": "uint256",
							"name": "",
							"type": "uint256"
						}
					],
					"stateMutability": "view",
					"type": "function"
				},
				{
					"inputs": [],
					"name": "owner",
					"outputs": [
						{
							"internalType": "address",
							"name": "",
							"type": "address"
						}
					],
					"stateMutability": "view",
					"type": "function"
				},
				{
					"inputs": [
						{
							"internalType": "string",
							"name": "_deviceId",
							"type": "string"
						},
						{
							"internalType": "string",
							"name": "_dataType",
							"type": "string"
						},
						{
							"internalType": "string",
							"name": "_dataValue",
							"type": "string"
						}
					],
					"name": "storeData",
					"outputs": [],
					"stateMutability": "nonpayable",
					"type": "function"
				}
			],
			"devdoc": {
				"kind": "dev",
				"methods": {},
				"version": 1
			},
			"evm": {
				"assembly": "    /* \"IoTDataStorage.sol\":60:1410  contract IoTDataStorage {... */\n  mstore(0x40, 0x80)\n    /* \"IoTDataStorage.sol\":543:594  constructor() {... */\n  callvalue\n  dup1\n  iszero\n  tag_1\n  jumpi\n  0x00\n  dup1\n  revert\ntag_1:\n  pop\n    /* \"IoTDataStorage.sol\":576:586  msg.sender */\n  caller\n    /* \"IoTDataStorage.sol\":568:573  owner */\n  0x01\n  0x00\n    /* \"IoTDataStorage.sol\":568:586  owner = msg.sender */\n  0x0100\n  exp\n  dup2\n  sload\n  dup2\n  0xffffffffffffffffffffffffffffffffffffffff\n  mul\n  not\n  and\n  swap1\n  dup4\n  0xffffffffffffffffffffffffffffffffffffffff\n  and\n  mul\n  or\n  swap1\n  sstore\n  pop\n    /* \"IoTDataStorage.sol\":60:1410  contract IoTDataStorage {... */\n  dataSize(sub_0)\n  dup1\n  dataOffset(sub_0)\n  0x00\n  codecopy\n  0x00\n  return\nstop\n\nsub_0: assembly {\n        /* \"IoTDataStorage.sol\":60:1410  contract IoTDataStorage {... */\n      mstore(0x40, 0x80)\n      callvalue\n      dup1\n      iszero\n      tag_1\n      jumpi\n      0x00\n      dup1\n      revert\n    tag_1:\n      pop\n      jumpi(tag_2, lt(calldatasize, 0x04))\n      shr(0xe0, calldataload(0x00))\n      dup1\n      0x03e9e609\n      eq\n      tag_3\n      jumpi\n      dup1\n      0x0aeacb5e\n      eq\n      tag_4\n      jumpi\n      dup1\n      0x7d4cb964\n      eq\n      tag_5\n      jumpi\n      dup1\n      0x8da5cb5b\n      eq\n      tag_6\n      jumpi\n      dup1\n      0xc8592e0b\n      eq\n      tag_7\n      jumpi\n      dup1\n      0xd4001ef2\n      eq\n      tag_8\n      jumpi\n    tag_2:\n      0x00\n      dup1\n      revert\n        /* \"IoTDataStorage.sol\":1080:1407  function getRecord(uint256 index) public view returns (uint256, string memory, string memory, string memory) {... */\n    tag_3:\n      tag_9\n      0x04\n      dup1\n      calldatasize\n      sub\n      dup2\n      add\n      swap1\n      tag_10\n      swap2\n      swap1\n      tag_11\n      jump\t// in\n    tag_10:\n      tag_12\n      jump\t// in\n    tag_9:\n      mload(0x40)\n      tag_13\n      swap5\n      swap4\n      swap3\n      swap2\n      swap1\n      tag_14\n      jump\t// in\n    tag_13:\n      mload(0x40)\n      dup1\n      swap2\n      sub\n      swap1\n      return\n        /* \"IoTDataStorage.sol\":971:1072  function getTotalRecords() public view returns (uint256) {... */\n    tag_4:\n      tag_15\n      tag_16\n      jump\t// in\n    tag_15:\n      mload(0x40)\n      tag_17\n      swap2\n      swap1\n      tag_18\n      jump\t// in\n    tag_17:\n      mload(0x40)\n      dup1\n      swap2\n      sub\n      swap1\n      return\n        /* \"IoTDataStorage.sol\":229:270  uint256 public constant MAX_ENTRIES = 100 */\n    tag_5:\n      tag_19\n      tag_20\n      jump\t// in\n    tag_19:\n      mload(0x40)\n      tag_21\n      swap2\n      swap1\n      tag_18\n      jump\t// in\n    tag_21:\n      mload(0x40)\n      dup1\n      swap2\n      sub\n      swap1\n      return\n        /* \"IoTDataStorage.sol\":312:332  address public owner */\n    tag_6:\n      tag_22\n      tag_23\n      jump\t// in\n    tag_22:\n      mload(0x40)\n      tag_24\n      swap2\n      swap1\n      tag_25\n      jump\t// in\n    tag_24:\n      mload(0x40)\n      dup1\n      swap2\n      sub\n      swap1\n      return\n        /* \"IoTDataStorage.sol\":277:305  IoTData[] public dataRecords */\n    tag_7:\n      tag_26\n      0x04\n      dup1\n      calldatasize\n      sub\n      dup2\n      add\n      swap1\n      tag_27\n      swap2\n      swap1\n      tag_11\n      jump\t// in\n    tag_27:\n      tag_28\n      jump\t// in\n    tag_26:\n      mload(0x40)\n      tag_29\n      swap5\n      swap4\n      swap3\n      swap2\n      swap1\n      tag_14\n      jump\t// in\n    tag_29:\n      mload(0x40)\n      dup1\n      swap2\n      sub\n      swap1\n      return\n        /* \"IoTDataStorage.sol\":602:963  function storeData(string memory _deviceId, string memory _dataType, string memory _dataValue) public onlyOwner {... */\n    tag_8:\n      tag_30\n      0x04\n      dup1\n      calldatasize\n      sub\n      dup2\n      add\n      swap1\n      tag_31\n      swap2\n      swap1\n      tag_32\n      jump\t// in\n    tag_31:\n      tag_33\n      jump\t// in\n    tag_30:\n      stop\n        /* \"IoTDataStorage.sol\":1080:1407  function getRecord(uint256 index) public view returns (uint256, string memory, string memory, string memory) {... */\n    tag_12:\n        /* \"IoTDataStorage.sol\":1135:1142  uint256 */\n      0x00\n        /* \"IoTDataStorage.sol\":1144:1157  string memory */\n      0x60\n        /* \"IoTDataStorage.sol\":1159:1172  string memory */\n      dup1\n        /* \"IoTDataStorage.sol\":1174:1187  string memory */\n      0x60\n        /* \"IoTDataStorage.sol\":1216:1227  dataRecords */\n      0x00\n        /* \"IoTDataStorage.sol\":1216:1234  dataRecords.length */\n      dup1\n      sload\n      swap1\n      pop\n        /* \"IoTDataStorage.sol\":1208:1213  index */\n      dup6\n        /* \"IoTDataStorage.sol\":1208:1234  index < dataRecords.length */\n      lt\n        /* \"IoTDataStorage.sol\":1200:1258  require(index < dataRecords.length, \"Index out of bounds\") */\n      tag_35\n      jumpi\n      mload(0x40)\n      0x08c379a000000000000000000000000000000000000000000000000000000000\n      dup2\n      mstore\n      0x04\n      add\n      tag_36\n      swap1\n      tag_37\n      jump\t// in\n    tag_36:\n      mload(0x40)\n      dup1\n      swap2\n      sub\n      swap1\n      revert\n    tag_35:\n        /* \"IoTDataStorage.sol\":1269:1290  IoTData memory record */\n      0x00\n        /* \"IoTDataStorage.sol\":1293:1304  dataRecords */\n      dup1\n        /* \"IoTDataStorage.sol\":1305:1310  index */\n      dup7\n        /* \"IoTDataStorage.sol\":1293:1311  dataRecords[index] */\n      dup2\n      sload\n      dup2\n      lt\n      tag_38\n      jumpi\n      tag_39\n      tag_40\n      jump\t// in\n    tag_39:\n    tag_38:\n      swap1\n      0x00\n      mstore\n      keccak256(0x00, 0x20)\n      swap1\n      0x04\n      mul\n      add\n        /* \"IoTDataStorage.sol\":1269:1311  IoTData memory record = dataRecords[index] */\n      mload(0x40)\n      dup1\n      0x80\n      add\n      0x40\n      mstore\n      swap1\n      dup2\n      0x00\n      dup3\n      add\n      sload\n      dup2\n      mstore\n      0x20\n      add\n      0x01\n      dup3\n      add\n      dup1\n      sload\n      tag_42\n      swap1\n      tag_43\n      jump\t// in\n    tag_42:\n      dup1\n      0x1f\n      add\n      0x20\n      dup1\n      swap2\n      div\n      mul\n      0x20\n      add\n      mload(0x40)\n      swap1\n      dup2\n      add\n      0x40\n      mstore\n      dup1\n      swap3\n      swap2\n      swap1\n      dup2\n      dup2\n      mstore\n      0x20\n      add\n      dup3\n      dup1\n      sload\n      tag_44\n      swap1\n      tag_43\n      jump\t// in\n    tag_44:\n      dup1\n      iszero\n      tag_45\n      jumpi\n      dup1\n      0x1f\n      lt\n      tag_46\n      jumpi\n      0x0100\n      dup1\n      dup4\n      sload\n      div\n      mul\n      dup4\n      mstore\n      swap2\n      0x20\n      add\n      swap2\n      jump(tag_45)\n    tag_46:\n      dup3\n      add\n      swap2\n      swap1\n      0x00\n      mstore\n      keccak256(0x00, 0x20)\n      swap1\n    tag_47:\n      dup2\n      sload\n      dup2\n      mstore\n      swap1\n      0x01\n      add\n      swap1\n      0x20\n      add\n      dup1\n      dup4\n      gt\n      tag_47\n      jumpi\n      dup3\n      swap1\n      sub\n      0x1f\n      and\n      dup3\n      add\n      swap2\n    tag_45:\n      pop\n      pop\n      pop\n      pop\n      pop\n      dup2\n      mstore\n      0x20\n      add\n      0x02\n      dup3\n      add\n      dup1\n      sload\n      tag_48\n      swap1\n      tag_43\n      jump\t// in\n    tag_48:\n      dup1\n      0x1f\n      add\n      0x20\n      dup1\n      swap2\n      div\n      mul\n      0x20\n      add\n      mload(0x40)\n      swap1\n      dup2\n      add\n      0x40\n      mstore\n      dup1\n      swap3\n      swap2\n      swap1\n      dup2\n      dup2\n      mstore\n      0x20\n      add\n      dup3\n      dup1\n      sload\n      tag_49\n      swap1\n      tag_43\n      jump\t// in\n    tag_49:\n      dup1\n      iszero\n      tag_50\n      jumpi\n      dup1\n      0x1f\n      lt\n      tag_51\n      jumpi\n      0x0100\n      dup1\n      dup4\n      sload\n      div\n      mul\n      dup4\n      mstore\n      swap2\n      0x20\n      add\n      swap2\n      jump(tag_50)\n    tag_51:\n      dup3\n      add\n      swap2\n      swap1\n      0x00\n      mstore\n      keccak256(0x00, 0x20)\n      swap1\n    tag_52:\n      dup2\n      sload\n      dup2\n      mstore\n      swap1\n      0x01\n      add\n      swap1\n      0x20\n      add\n      dup1\n      dup4\n      gt\n      tag_52\n      jumpi\n      dup3\n      swap1\n      sub\n      0x1f\n      and\n      dup3\n      add\n      swap2\n    tag_50:\n      pop\n      pop\n      pop\n      pop\n      pop\n      dup2\n      mstore\n      0x20\n      add\n      0x03\n      dup3\n      add\n      dup1\n      sload\n      tag_53\n      swap1\n      tag_43\n      jump\t// in\n    tag_53:\n      dup1\n      0x1f\n      add\n      0x20\n      dup1\n      swap2\n      div\n      mul\n      0x20\n      add\n      mload(0x40)\n      swap1\n      dup2\n      add\n      0x40\n      mstore\n      dup1\n      swap3\n      swap2\n      swap1\n      dup2\n      dup2\n      mstore\n      0x20\n      add\n      dup3\n      dup1\n      sload\n      tag_54\n      swap1\n      tag_43\n      jump\t// in\n    tag_54:\n      dup1\n      iszero\n      tag_55\n      jumpi\n      dup1\n      0x1f\n      lt\n      tag_56\n      jumpi\n      0x0100\n      dup1\n      dup4\n      sload\n      div\n      mul\n      dup4\n      mstore\n      swap2\n      0x20\n      add\n      swap2\n      jump(tag_55)\n    tag_56:\n      dup3\n      add\n      swap2\n      swap1\n      0x00\n      mstore\n      keccak256(0x00, 0x20)\n      swap1\n    tag_57:\n      dup2\n      sload\n      dup2\n      mstore\n      swap1\n      0x01\n      add\n      swap1\n      0x20\n      add\n      dup1\n      dup4\n      gt\n      tag_57\n      jumpi\n      dup3\n      swap1\n      sub\n      0x1f\n      and\n      dup3\n      add\n      swap2\n    tag_55:\n      pop\n      pop\n      pop\n      pop\n      pop\n      dup2\n      mstore\n      pop\n      pop\n      swap1\n      pop\n        /* \"IoTDataStorage.sol\":1330:1336  record */\n      dup1\n        /* \"IoTDataStorage.sol\":1330:1346  record.timestamp */\n      0x00\n      add\n      mload\n        /* \"IoTDataStorage.sol\":1348:1354  record */\n      dup2\n        /* \"IoTDataStorage.sol\":1348:1363  record.deviceId */\n      0x20\n      add\n      mload\n        /* \"IoTDataStorage.sol\":1365:1371  record */\n      dup3\n        /* \"IoTDataStorage.sol\":1365:1380  record.dataType */\n      0x40\n      add\n      mload\n        /* \"IoTDataStorage.sol\":1382:1388  record */\n      dup4\n        /* \"IoTDataStorage.sol\":1382:1398  record.dataValue */\n      0x60\n      add\n      mload\n        /* \"IoTDataStorage.sol\":1322:1399  return (record.timestamp, record.deviceId, record.dataType, record.dataValue) */\n      swap5\n      pop\n      swap5\n      pop\n      swap5\n      pop\n      swap5\n      pop\n      pop\n        /* \"IoTDataStorage.sol\":1080:1407  function getRecord(uint256 index) public view returns (uint256, string memory, string memory, string memory) {... */\n      swap2\n      swap4\n      pop\n      swap2\n      swap4\n      jump\t// out\n        /* \"IoTDataStorage.sol\":971:1072  function getTotalRecords() public view returns (uint256) {... */\n    tag_16:\n        /* \"IoTDataStorage.sol\":1019:1026  uint256 */\n      0x00\n        /* \"IoTDataStorage.sol\":1046:1057  dataRecords */\n      dup1\n        /* \"IoTDataStorage.sol\":1046:1064  dataRecords.length */\n      dup1\n      sload\n      swap1\n      pop\n        /* \"IoTDataStorage.sol\":1039:1064  return dataRecords.length */\n      swap1\n      pop\n        /* \"IoTDataStorage.sol\":971:1072  function getTotalRecords() public view returns (uint256) {... */\n      swap1\n      jump\t// out\n        /* \"IoTDataStorage.sol\":229:270  uint256 public constant MAX_ENTRIES = 100 */\n    tag_20:\n        /* \"IoTDataStorage.sol\":267:270  100 */\n      0x64\n        /* \"IoTDataStorage.sol\":229:270  uint256 public constant MAX_ENTRIES = 100 */\n      dup2\n      jump\t// out\n        /* \"IoTDataStorage.sol\":312:332  address public owner */\n    tag_23:\n      0x01\n      0x00\n      swap1\n      sload\n      swap1\n      0x0100\n      exp\n      swap1\n      div\n      0xffffffffffffffffffffffffffffffffffffffff\n      and\n      dup2\n      jump\t// out\n        /* \"IoTDataStorage.sol\":277:305  IoTData[] public dataRecords */\n    tag_28:\n      0x00\n      dup2\n      dup2\n      sload\n      dup2\n      lt\n      tag_59\n      jumpi\n      0x00\n      dup1\n      revert\n    tag_59:\n      swap1\n      0x00\n      mstore\n      keccak256(0x00, 0x20)\n      swap1\n      0x04\n      mul\n      add\n      0x00\n      swap2\n      pop\n      swap1\n      pop\n      dup1\n      0x00\n      add\n      sload\n      swap1\n      dup1\n      0x01\n      add\n      dup1\n      sload\n      tag_61\n      swap1\n      tag_43\n      jump\t// in\n    tag_61:\n      dup1\n      0x1f\n      add\n      0x20\n      dup1\n      swap2\n      div\n      mul\n      0x20\n      add\n      mload(0x40)\n      swap1\n      dup2\n      add\n      0x40\n      mstore\n      dup1\n      swap3\n      swap2\n      swap1\n      dup2\n      dup2\n      mstore\n      0x20\n      add\n      dup3\n      dup1\n      sload\n      tag_62\n      swap1\n      tag_43\n      jump\t// in\n    tag_62:\n      dup1\n      iszero\n      tag_63\n      jumpi\n      dup1\n      0x1f\n      lt\n      tag_64\n      jumpi\n      0x0100\n      dup1\n      dup4\n      sload\n      div\n      mul\n      dup4\n      mstore\n      swap2\n      0x20\n      add\n      swap2\n      jump(tag_63)\n    tag_64:\n      dup3\n      add\n      swap2\n      swap1\n      0x00\n      mstore\n      keccak256(0x00, 0x20)\n      swap1\n    tag_65:\n      dup2\n      sload\n      dup2\n      mstore\n      swap1\n      0x01\n      add\n      swap1\n      0x20\n      add\n      dup1\n      dup4\n      gt\n      tag_65\n      jumpi\n      dup3\n      swap1\n      sub\n      0x1f\n      and\n      dup3\n      add\n      swap2\n    tag_63:\n      pop\n      pop\n      pop\n      pop\n      pop\n      swap1\n      dup1\n      0x02\n      add\n      dup1\n      sload\n      tag_66\n      swap1\n      tag_43\n      jump\t// in\n    tag_66:\n      dup1\n      0x1f\n      add\n      0x20\n      dup1\n      swap2\n      div\n      mul\n      0x20\n      add\n      mload(0x40)\n      swap1\n      dup2\n      add\n      0x40\n      mstore\n      dup1\n      swap3\n      swap2\n      swap1\n      dup2\n      dup2\n      mstore\n      0x20\n      add\n      dup3\n      dup1\n      sload\n      tag_67\n      swap1\n      tag_43\n      jump\t// in\n    tag_67:\n      dup1\n      iszero\n      tag_68\n      jumpi\n      dup1\n      0x1f\n      lt\n      tag_69\n      jumpi\n      0x0100\n      dup1\n      dup4\n      sload\n      div\n      mul\n      dup4\n      mstore\n      swap2\n      0x20\n      add\n      swap2\n      jump(tag_68)\n    tag_69:\n      dup3\n      add\n      swap2\n      swap1\n      0x00\n      mstore\n      keccak256(0x00, 0x20)\n      swap1\n    tag_70:\n      dup2\n      sload\n      dup2\n      mstore\n      swap1\n      0x01\n      add\n      swap1\n      0x20\n      add\n      dup1\n      dup4\n      gt\n      tag_70\n      jumpi\n      dup3\n      swap1\n      sub\n      0x1f\n      and\n      dup3\n      add\n      swap2\n    tag_68:\n      pop\n      pop\n      pop\n      pop\n      pop\n      swap1\n      dup1\n      0x03\n      add\n      dup1\n      sload\n      tag_71\n      swap1\n      tag_43\n      jump\t// in\n    tag_71:\n      dup1\n      0x1f\n      add\n      0x20\n      dup1\n      swap2\n      div\n      mul\n      0x20\n      add\n      mload(0x40)\n      swap1\n      dup2\n      add\n      0x40\n      mstore\n      dup1\n      swap3\n      swap2\n      swap1\n      dup2\n      dup2\n      mstore\n      0x20\n      add\n      dup3\n      dup1\n      sload\n      tag_72\n      swap1\n      tag_43\n      jump\t// in\n    tag_72:\n      dup1\n      iszero\n      tag_73\n      jumpi\n      dup1\n      0x1f\n      lt\n      tag_74\n      jumpi\n      0x0100\n      dup1\n      dup4\n      sload\n      div\n      mul\n      dup4\n      mstore\n      swap2\n      0x20\n      add\n      swap2\n      jump(tag_73)\n    tag_74:\n      dup3\n      add\n      swap2\n      swap1\n      0x00\n      mstore\n      keccak256(0x00, 0x20)\n      swap1\n    tag_75:\n      dup2\n      sload\n      dup2\n      mstore\n      swap1\n      0x01\n      add\n      swap1\n      0x20\n      add\n      dup1\n      dup4\n      gt\n      tag_75\n      jumpi\n      dup3\n      swap1\n      sub\n      0x1f\n      and\n      dup3\n      add\n      swap2\n    tag_73:\n      pop\n      pop\n      pop\n      pop\n      pop\n      swap1\n      pop\n      dup5\n      jump\t// out\n        /* \"IoTDataStorage.sol\":602:963  function storeData(string memory _deviceId, string memory _dataType, string memory _dataValue) public onlyOwner {... */\n    tag_33:\n        /* \"IoTDataStorage.sol\":491:496  owner */\n      0x01\n      0x00\n      swap1\n      sload\n      swap1\n      0x0100\n      exp\n      swap1\n      div\n      0xffffffffffffffffffffffffffffffffffffffff\n      and\n        /* \"IoTDataStorage.sol\":477:496  msg.sender == owner */\n      0xffffffffffffffffffffffffffffffffffffffff\n      and\n        /* \"IoTDataStorage.sol\":477:487  msg.sender */\n      caller\n        /* \"IoTDataStorage.sol\":477:496  msg.sender == owner */\n      0xffffffffffffffffffffffffffffffffffffffff\n      and\n      eq\n        /* \"IoTDataStorage.sol\":469:515  require(msg.sender == owner, \"Not authorized\") */\n      tag_77\n      jumpi\n      mload(0x40)\n      0x08c379a000000000000000000000000000000000000000000000000000000000\n      dup2\n      mstore\n      0x04\n      add\n      tag_78\n      swap1\n      tag_79\n      jump\t// in\n    tag_78:\n      mload(0x40)\n      dup1\n      swap2\n      sub\n      swap1\n      revert\n    tag_77:\n        /* \"IoTDataStorage.sol\":267:270  100 */\n      0x64\n        /* \"IoTDataStorage.sol\":733:744  dataRecords */\n      0x00\n        /* \"IoTDataStorage.sol\":733:751  dataRecords.length */\n      dup1\n      sload\n      swap1\n      pop\n        /* \"IoTDataStorage.sol\":733:765  dataRecords.length < MAX_ENTRIES */\n      lt\n        /* \"IoTDataStorage.sol\":725:791  require(dataRecords.length < MAX_ENTRIES, \"Storage limit reached\") */\n      tag_81\n      jumpi\n      mload(0x40)\n      0x08c379a000000000000000000000000000000000000000000000000000000000\n      dup2\n      mstore\n      0x04\n      add\n      tag_82\n      swap1\n      tag_83\n      jump\t// in\n    tag_82:\n      mload(0x40)\n      dup1\n      swap2\n      sub\n      swap1\n      revert\n    tag_81:\n        /* \"IoTDataStorage.sol\":802:813  dataRecords */\n      0x00\n        /* \"IoTDataStorage.sol\":819:877  IoTData(block.timestamp, _deviceId, _dataType, _dataValue) */\n      mload(0x40)\n      dup1\n      0x80\n      add\n      0x40\n      mstore\n      dup1\n        /* \"IoTDataStorage.sol\":827:842  block.timestamp */\n      timestamp\n        /* \"IoTDataStorage.sol\":819:877  IoTData(block.timestamp, _deviceId, _dataType, _dataValue) */\n      dup2\n      mstore\n      0x20\n      add\n        /* \"IoTDataStorage.sol\":844:853  _deviceId */\n      dup6\n        /* \"IoTDataStorage.sol\":819:877  IoTData(block.timestamp, _deviceId, _dataType, _dataValue) */\n      dup2\n      mstore\n      0x20\n      add\n        /* \"IoTDataStorage.sol\":855:864  _dataType */\n      dup5\n        /* \"IoTDataStorage.sol\":819:877  IoTData(block.timestamp, _deviceId, _dataType, _dataValue) */\n      dup2\n      mstore\n      0x20\n      add\n        /* \"IoTDataStorage.sol\":866:876  _dataValue */\n      dup4\n        /* \"IoTDataStorage.sol\":819:877  IoTData(block.timestamp, _deviceId, _dataType, _dataValue) */\n      dup2\n      mstore\n      pop\n        /* \"IoTDataStorage.sol\":802:878  dataRecords.push(IoTData(block.timestamp, _deviceId, _dataType, _dataValue)) */\n      swap1\n      dup1\n      0x01\n      dup2\n      sload\n      add\n      dup1\n      dup3\n      sstore\n      dup1\n      swap2\n      pop\n      pop\n      0x01\n      swap1\n      sub\n      swap1\n      0x00\n      mstore\n      keccak256(0x00, 0x20)\n      swap1\n      0x04\n      mul\n      add\n      0x00\n      swap1\n      swap2\n      swap1\n      swap2\n      swap1\n      swap2\n      pop\n      0x00\n      dup3\n      add\n      mload\n      dup2\n      0x00\n      add\n      sstore\n      0x20\n      dup3\n      add\n      mload\n      dup2\n      0x01\n      add\n      swap1\n      dup2\n      tag_85\n      swap2\n      swap1\n      tag_86\n      jump\t// in\n    tag_85:\n      pop\n      0x40\n      dup3\n      add\n      mload\n      dup2\n      0x02\n      add\n      swap1\n      dup2\n      tag_87\n      swap2\n      swap1\n      tag_86\n      jump\t// in\n    tag_87:\n      pop\n      0x60\n      dup3\n      add\n      mload\n      dup2\n      0x03\n      add\n      swap1\n      dup2\n      tag_88\n      swap2\n      swap1\n      tag_86\n      jump\t// in\n    tag_88:\n      pop\n      pop\n      pop\n        /* \"IoTDataStorage.sol\":894:955  DataStored(block.timestamp, _deviceId, _dataType, _dataValue) */\n      0xc27557253cfa793c3de4beda3cf3aad78548fbff6f148459c5d4e26e97d6e258\n        /* \"IoTDataStorage.sol\":905:920  block.timestamp */\n      timestamp\n        /* \"IoTDataStorage.sol\":922:931  _deviceId */\n      dup5\n        /* \"IoTDataStorage.sol\":933:942  _dataType */\n      dup5\n        /* \"IoTDataStorage.sol\":944:954  _dataValue */\n      dup5\n        /* \"IoTDataStorage.sol\":894:955  DataStored(block.timestamp, _deviceId, _dataType, _dataValue) */\n      mload(0x40)\n      tag_89\n      swap5\n      swap4\n      swap3\n      swap2\n      swap1\n      tag_14\n      jump\t// in\n    tag_89:\n      mload(0x40)\n      dup1\n      swap2\n      sub\n      swap1\n      log1\n        /* \"IoTDataStorage.sol\":602:963  function storeData(string memory _deviceId, string memory _dataType, string memory _dataValue) public onlyOwner {... */\n      pop\n      pop\n      pop\n      jump\t// out\n        /* \"#utility.yul\":7:82   */\n    tag_90:\n        /* \"#utility.yul\":40:46   */\n      0x00\n        /* \"#utility.yul\":73:75   */\n      0x40\n        /* \"#utility.yul\":67:76   */\n      mload\n        /* \"#utility.yul\":57:76   */\n      swap1\n      pop\n        /* \"#utility.yul\":7:82   */\n      swap1\n      jump\t// out\n        /* \"#utility.yul\":88:205   */\n    tag_91:\n        /* \"#utility.yul\":197:198   */\n      0x00\n        /* \"#utility.yul\":194:195   */\n      dup1\n        /* \"#utility.yul\":187:199   */\n      revert\n        /* \"#utility.yul\":211:328   */\n    tag_92:\n        /* \"#utility.yul\":320:321   */\n      0x00\n        /* \"#utility.yul\":317:318   */\n      dup1\n        /* \"#utility.yul\":310:322   */\n      revert\n        /* \"#utility.yul\":334:411   */\n    tag_93:\n        /* \"#utility.yul\":371:378   */\n      0x00\n        /* \"#utility.yul\":400:405   */\n      dup2\n        /* \"#utility.yul\":389:405   */\n      swap1\n      pop\n        /* \"#utility.yul\":334:411   */\n      swap2\n      swap1\n      pop\n      jump\t// out\n        /* \"#utility.yul\":417:539   */\n    tag_94:\n        /* \"#utility.yul\":490:514   */\n      tag_142\n        /* \"#utility.yul\":508:513   */\n      dup2\n        /* \"#utility.yul\":490:514   */\n      tag_93\n      jump\t// in\n    tag_142:\n        /* \"#utility.yul\":483:488   */\n      dup2\n        /* \"#utility.yul\":480:515   */\n      eq\n        /* \"#utility.yul\":470:533   */\n      tag_143\n      jumpi\n        /* \"#utility.yul\":529:530   */\n      0x00\n        /* \"#utility.yul\":526:527   */\n      dup1\n        /* \"#utility.yul\":519:531   */\n      revert\n        /* \"#utility.yul\":470:533   */\n    tag_143:\n        /* \"#utility.yul\":417:539   */\n      pop\n      jump\t// out\n        /* \"#utility.yul\":545:684   */\n    tag_95:\n        /* \"#utility.yul\":591:596   */\n      0x00\n        /* \"#utility.yul\":629:635   */\n      dup2\n        /* \"#utility.yul\":616:636   */\n      calldataload\n        /* \"#utility.yul\":607:636   */\n      swap1\n      pop\n        /* \"#utility.yul\":645:678   */\n      tag_145\n        /* \"#utility.yul\":672:677   */\n      dup2\n        /* \"#utility.yul\":645:678   */\n      tag_94\n      jump\t// in\n    tag_145:\n        /* \"#utility.yul\":545:684   */\n      swap3\n      swap2\n      pop\n      pop\n      jump\t// out\n        /* \"#utility.yul\":690:1019   */\n    tag_11:\n        /* \"#utility.yul\":749:755   */\n      0x00\n        /* \"#utility.yul\":798:800   */\n      0x20\n        /* \"#utility.yul\":786:795   */\n      dup3\n        /* \"#utility.yul\":777:784   */\n      dup5\n        /* \"#utility.yul\":773:796   */\n      sub\n        /* \"#utility.yul\":769:801   */\n      slt\n        /* \"#utility.yul\":766:885   */\n      iszero\n      tag_147\n      jumpi\n        /* \"#utility.yul\":804:883   */\n      tag_148\n      tag_91\n      jump\t// in\n    tag_148:\n        /* \"#utility.yul\":766:885   */\n    tag_147:\n        /* \"#utility.yul\":924:925   */\n      0x00\n        /* \"#utility.yul\":949:1002   */\n      tag_149\n        /* \"#utility.yul\":994:1001   */\n      dup5\n        /* \"#utility.yul\":985:991   */\n      dup3\n        /* \"#utility.yul\":974:983   */\n      dup6\n        /* \"#utility.yul\":970:992   */\n      add\n        /* \"#utility.yul\":949:1002   */\n      tag_95\n      jump\t// in\n    tag_149:\n        /* \"#utility.yul\":939:1002   */\n      swap2\n      pop\n        /* \"#utility.yul\":895:1012   */\n      pop\n        /* \"#utility.yul\":690:1019   */\n      swap3\n      swap2\n      pop\n      pop\n      jump\t// out\n        /* \"#utility.yul\":1025:1143   */\n    tag_96:\n        /* \"#utility.yul\":1112:1136   */\n      tag_151\n        /* \"#utility.yul\":1130:1135   */\n      dup2\n        /* \"#utility.yul\":1112:1136   */\n      tag_93\n      jump\t// in\n    tag_151:\n        /* \"#utility.yul\":1107:1110   */\n      dup3\n        /* \"#utility.yul\":1100:1137   */\n      mstore\n        /* \"#utility.yul\":1025:1143   */\n      pop\n      pop\n      jump\t// out\n        /* \"#utility.yul\":1149:1248   */\n    tag_97:\n        /* \"#utility.yul\":1201:1207   */\n      0x00\n        /* \"#utility.yul\":1235:1240   */\n      dup2\n        /* \"#utility.yul\":1229:1241   */\n      mload\n        /* \"#utility.yul\":1219:1241   */\n      swap1\n      pop\n        /* \"#utility.yul\":1149:1248   */\n      swap2\n      swap1\n      pop\n      jump\t// out\n        /* \"#utility.yul\":1254:1423   */\n    tag_98:\n        /* \"#utility.yul\":1338:1349   */\n      0x00\n        /* \"#utility.yul\":1372:1378   */\n      dup3\n        /* \"#utility.yul\":1367:1370   */\n      dup3\n        /* \"#utility.yul\":1360:1379   */\n      mstore\n        /* \"#utility.yul\":1412:1416   */\n      0x20\n        /* \"#utility.yul\":1407:1410   */\n      dup3\n        /* \"#utility.yul\":1403:1417   */\n      add\n        /* \"#utility.yul\":1388:1417   */\n      swap1\n      pop\n        /* \"#utility.yul\":1254:1423   */\n      swap3\n      swap2\n      pop\n      pop\n      jump\t// out\n        /* \"#utility.yul\":1429:1677   */\n    tag_99:\n        /* \"#utility.yul\":1511:1512   */\n      0x00\n        /* \"#utility.yul\":1521:1634   */\n    tag_155:\n        /* \"#utility.yul\":1535:1541   */\n      dup4\n        /* \"#utility.yul\":1532:1533   */\n      dup2\n        /* \"#utility.yul\":1529:1542   */\n      lt\n        /* \"#utility.yul\":1521:1634   */\n      iszero\n      tag_157\n      jumpi\n        /* \"#utility.yul\":1620:1621   */\n      dup1\n        /* \"#utility.yul\":1615:1618   */\n      dup3\n        /* \"#utility.yul\":1611:1622   */\n      add\n        /* \"#utility.yul\":1605:1623   */\n      mload\n        /* \"#utility.yul\":1601:1602   */\n      dup2\n        /* \"#utility.yul\":1596:1599   */\n      dup5\n        /* \"#utility.yul\":1592:1603   */\n      add\n        /* \"#utility.yul\":1585:1624   */\n      mstore\n        /* \"#utility.yul\":1557:1559   */\n      0x20\n        /* \"#utility.yul\":1554:1555   */\n      dup2\n        /* \"#utility.yul\":1550:1560   */\n      add\n        /* \"#utility.yul\":1545:1560   */\n      swap1\n      pop\n        /* \"#utility.yul\":1521:1634   */\n      jump(tag_155)\n    tag_157:\n        /* \"#utility.yul\":1668:1669   */\n      0x00\n        /* \"#utility.yul\":1659:1665   */\n      dup5\n        /* \"#utility.yul\":1654:1657   */\n      dup5\n        /* \"#utility.yul\":1650:1666   */\n      add\n        /* \"#utility.yul\":1643:1670   */\n      mstore\n        /* \"#utility.yul\":1491:1677   */\n      pop\n        /* \"#utility.yul\":1429:1677   */\n      pop\n      pop\n      pop\n      jump\t// out\n        /* \"#utility.yul\":1683:1785   */\n    tag_100:\n        /* \"#utility.yul\":1724:1730   */\n      0x00\n        /* \"#utility.yul\":1775:1777   */\n      0x1f\n        /* \"#utility.yul\":1771:1778   */\n      not\n        /* \"#utility.yul\":1766:1768   */\n      0x1f\n        /* \"#utility.yul\":1759:1764   */\n      dup4\n        /* \"#utility.yul\":1755:1769   */\n      add\n        /* \"#utility.yul\":1751:1779   */\n      and\n        /* \"#utility.yul\":1741:1779   */\n      swap1\n      pop\n        /* \"#utility.yul\":1683:1785   */\n      swap2\n      swap1\n      pop\n      jump\t// out\n        /* \"#utility.yul\":1791:2168   */\n    tag_101:\n        /* \"#utility.yul\":1879:1882   */\n      0x00\n        /* \"#utility.yul\":1907:1946   */\n      tag_160\n        /* \"#utility.yul\":1940:1945   */\n      dup3\n        /* \"#utility.yul\":1907:1946   */\n      tag_97\n      jump\t// in\n    tag_160:\n        /* \"#utility.yul\":1962:2033   */\n      tag_161\n        /* \"#utility.yul\":2026:2032   */\n      dup2\n        /* \"#utility.yul\":2021:2024   */\n      dup6\n        /* \"#utility.yul\":1962:2033   */\n      tag_98\n      jump\t// in\n    tag_161:\n        /* \"#utility.yul\":1955:2033   */\n      swap4\n      pop\n        /* \"#utility.yul\":2042:2107   */\n      tag_162\n        /* \"#utility.yul\":2100:2106   */\n      dup2\n        /* \"#utility.yul\":2095:2098   */\n      dup6\n        /* \"#utility.yul\":2088:2092   */\n      0x20\n        /* \"#utility.yul\":2081:2086   */\n      dup7\n        /* \"#utility.yul\":2077:2093   */\n      add\n        /* \"#utility.yul\":2042:2107   */\n      tag_99\n      jump\t// in\n    tag_162:\n        /* \"#utility.yul\":2132:2161   */\n      tag_163\n        /* \"#utility.yul\":2154:2160   */\n      dup2\n        /* \"#utility.yul\":2132:2161   */\n      tag_100\n      jump\t// in\n    tag_163:\n        /* \"#utility.yul\":2127:2130   */\n      dup5\n        /* \"#utility.yul\":2123:2162   */\n      add\n        /* \"#utility.yul\":2116:2162   */\n      swap2\n      pop\n        /* \"#utility.yul\":1883:2168   */\n      pop\n        /* \"#utility.yul\":1791:2168   */\n      swap3\n      swap2\n      pop\n      pop\n      jump\t// out\n        /* \"#utility.yul\":2174:3000   */\n    tag_14:\n        /* \"#utility.yul\":2411:2415   */\n      0x00\n        /* \"#utility.yul\":2449:2452   */\n      0x80\n        /* \"#utility.yul\":2438:2447   */\n      dup3\n        /* \"#utility.yul\":2434:2453   */\n      add\n        /* \"#utility.yul\":2426:2453   */\n      swap1\n      pop\n        /* \"#utility.yul\":2463:2534   */\n      tag_165\n        /* \"#utility.yul\":2531:2532   */\n      0x00\n        /* \"#utility.yul\":2520:2529   */\n      dup4\n        /* \"#utility.yul\":2516:2533   */\n      add\n        /* \"#utility.yul\":2507:2513   */\n      dup8\n        /* \"#utility.yul\":2463:2534   */\n      tag_96\n      jump\t// in\n    tag_165:\n        /* \"#utility.yul\":2581:2590   */\n      dup2\n        /* \"#utility.yul\":2575:2579   */\n      dup2\n        /* \"#utility.yul\":2571:2591   */\n      sub\n        /* \"#utility.yul\":2566:2568   */\n      0x20\n        /* \"#utility.yul\":2555:2564   */\n      dup4\n        /* \"#utility.yul\":2551:2569   */\n      add\n        /* \"#utility.yul\":2544:2592   */\n      mstore\n        /* \"#utility.yul\":2609:2687   */\n      tag_166\n        /* \"#utility.yul\":2682:2686   */\n      dup2\n        /* \"#utility.yul\":2673:2679   */\n      dup7\n        /* \"#utility.yul\":2609:2687   */\n      tag_101\n      jump\t// in\n    tag_166:\n        /* \"#utility.yul\":2601:2687   */\n      swap1\n      pop\n        /* \"#utility.yul\":2734:2743   */\n      dup2\n        /* \"#utility.yul\":2728:2732   */\n      dup2\n        /* \"#utility.yul\":2724:2744   */\n      sub\n        /* \"#utility.yul\":2719:2721   */\n      0x40\n        /* \"#utility.yul\":2708:2717   */\n      dup4\n        /* \"#utility.yul\":2704:2722   */\n      add\n        /* \"#utility.yul\":2697:2745   */\n      mstore\n        /* \"#utility.yul\":2762:2840   */\n      tag_167\n        /* \"#utility.yul\":2835:2839   */\n      dup2\n        /* \"#utility.yul\":2826:2832   */\n      dup6\n        /* \"#utility.yul\":2762:2840   */\n      tag_101\n      jump\t// in\n    tag_167:\n        /* \"#utility.yul\":2754:2840   */\n      swap1\n      pop\n        /* \"#utility.yul\":2887:2896   */\n      dup2\n        /* \"#utility.yul\":2881:2885   */\n      dup2\n        /* \"#utility.yul\":2877:2897   */\n      sub\n        /* \"#utility.yul\":2872:2874   */\n      0x60\n        /* \"#utility.yul\":2861:2870   */\n      dup4\n        /* \"#utility.yul\":2857:2875   */\n      add\n        /* \"#utility.yul\":2850:2898   */\n      mstore\n        /* \"#utility.yul\":2915:2993   */\n      tag_168\n        /* \"#utility.yul\":2988:2992   */\n      dup2\n        /* \"#utility.yul\":2979:2985   */\n      dup5\n        /* \"#utility.yul\":2915:2993   */\n      tag_101\n      jump\t// in\n    tag_168:\n        /* \"#utility.yul\":2907:2993   */\n      swap1\n      pop\n        /* \"#utility.yul\":2174:3000   */\n      swap6\n      swap5\n      pop\n      pop\n      pop\n      pop\n      pop\n      jump\t// out\n        /* \"#utility.yul\":3006:3228   */\n    tag_18:\n        /* \"#utility.yul\":3099:3103   */\n      0x00\n        /* \"#utility.yul\":3137:3139   */\n      0x20\n        /* \"#utility.yul\":3126:3135   */\n      dup3\n        /* \"#utility.yul\":3122:3140   */\n      add\n        /* \"#utility.yul\":3114:3140   */\n      swap1\n      pop\n        /* \"#utility.yul\":3150:3221   */\n      tag_170\n        /* \"#utility.yul\":3218:3219   */\n      0x00\n        /* \"#utility.yul\":3207:3216   */\n      dup4\n        /* \"#utility.yul\":3203:3220   */\n      add\n        /* \"#utility.yul\":3194:3200   */\n      dup5\n        /* \"#utility.yul\":3150:3221   */\n      tag_96\n      jump\t// in\n    tag_170:\n        /* \"#utility.yul\":3006:3228   */\n      swap3\n      swap2\n      pop\n      pop\n      jump\t// out\n        /* \"#utility.yul\":3234:3360   */\n    tag_102:\n        /* \"#utility.yul\":3271:3278   */\n      0x00\n        /* \"#utility.yul\":3311:3353   */\n      0xffffffffffffffffffffffffffffffffffffffff\n        /* \"#utility.yul\":3304:3309   */\n      dup3\n        /* \"#utility.yul\":3300:3354   */\n      and\n        /* \"#utility.yul\":3289:3354   */\n      swap1\n      pop\n        /* \"#utility.yul\":3234:3360   */\n      swap2\n      swap1\n      pop\n      jump\t// out\n        /* \"#utility.yul\":3366:3462   */\n    tag_103:\n        /* \"#utility.yul\":3403:3410   */\n      0x00\n        /* \"#utility.yul\":3432:3456   */\n      tag_173\n        /* \"#utility.yul\":3450:3455   */\n      dup3\n        /* \"#utility.yul\":3432:3456   */\n      tag_102\n      jump\t// in\n    tag_173:\n        /* \"#utility.yul\":3421:3456   */\n      swap1\n      pop\n        /* \"#utility.yul\":3366:3462   */\n      swap2\n      swap1\n      pop\n      jump\t// out\n        /* \"#utility.yul\":3468:3586   */\n    tag_104:\n        /* \"#utility.yul\":3555:3579   */\n      tag_175\n        /* \"#utility.yul\":3573:3578   */\n      dup2\n        /* \"#utility.yul\":3555:3579   */\n      tag_103\n      jump\t// in\n    tag_175:\n        /* \"#utility.yul\":3550:3553   */\n      dup3\n        /* \"#utility.yul\":3543:3580   */\n      mstore\n        /* \"#utility.yul\":3468:3586   */\n      pop\n      pop\n      jump\t// out\n        /* \"#utility.yul\":3592:3814   */\n    tag_25:\n        /* \"#utility.yul\":3685:3689   */\n      0x00\n        /* \"#utility.yul\":3723:3725   */\n      0x20\n        /* \"#utility.yul\":3712:3721   */\n      dup3\n        /* \"#utility.yul\":3708:3726   */\n      add\n        /* \"#utility.yul\":3700:3726   */\n      swap1\n      pop\n        /* \"#utility.yul\":3736:3807   */\n      tag_177\n        /* \"#utility.yul\":3804:3805   */\n      0x00\n        /* \"#utility.yul\":3793:3802   */\n      dup4\n        /* \"#utility.yul\":3789:3806   */\n      add\n        /* \"#utility.yul\":3780:3786   */\n      dup5\n        /* \"#utility.yul\":3736:3807   */\n      tag_104\n      jump\t// in\n    tag_177:\n        /* \"#utility.yul\":3592:3814   */\n      swap3\n      swap2\n      pop\n      pop\n      jump\t// out\n        /* \"#utility.yul\":3820:3937   */\n    tag_105:\n        /* \"#utility.yul\":3929:3930   */\n      0x00\n        /* \"#utility.yul\":3926:3927   */\n      dup1\n        /* \"#utility.yul\":3919:3931   */\n      revert\n        /* \"#utility.yul\":3943:4060   */\n    tag_106:\n        /* \"#utility.yul\":4052:4053   */\n      0x00\n        /* \"#utility.yul\":4049:4050   */\n      dup1\n        /* \"#utility.yul\":4042:4054   */\n      revert\n        /* \"#utility.yul\":4066:4246   */\n    tag_107:\n        /* \"#utility.yul\":4114:4191   */\n      0x4e487b7100000000000000000000000000000000000000000000000000000000\n        /* \"#utility.yul\":4111:4112   */\n      0x00\n        /* \"#utility.yul\":4104:4192   */\n      mstore\n        /* \"#utility.yul\":4211:4215   */\n      0x41\n        /* \"#utility.yul\":4208:4209   */\n      0x04\n        /* \"#utility.yul\":4201:4216   */\n      mstore\n        /* \"#utility.yul\":4235:4239   */\n      0x24\n        /* \"#utility.yul\":4232:4233   */\n      0x00\n        /* \"#utility.yul\":4225:4240   */\n      revert\n        /* \"#utility.yul\":4252:4533   */\n    tag_108:\n        /* \"#utility.yul\":4335:4362   */\n      tag_182\n        /* \"#utility.yul\":4357:4361   */\n      dup3\n        /* \"#utility.yul\":4335:4362   */\n      tag_100\n      jump\t// in\n    tag_182:\n        /* \"#utility.yul\":4327:4333   */\n      dup2\n        /* \"#utility.yul\":4323:4363   */\n      add\n        /* \"#utility.yul\":4465:4471   */\n      dup2\n        /* \"#utility.yul\":4453:4463   */\n      dup2\n        /* \"#utility.yul\":4450:4472   */\n      lt\n        /* \"#utility.yul\":4429:4447   */\n      0xffffffffffffffff\n        /* \"#utility.yul\":4417:4427   */\n      dup3\n        /* \"#utility.yul\":4414:4448   */\n      gt\n        /* \"#utility.yul\":4411:4473   */\n      or\n        /* \"#utility.yul\":4408:4496   */\n      iszero\n      tag_183\n      jumpi\n        /* \"#utility.yul\":4476:4494   */\n      tag_184\n      tag_107\n      jump\t// in\n    tag_184:\n        /* \"#utility.yul\":4408:4496   */\n    tag_183:\n        /* \"#utility.yul\":4516:4526   */\n      dup1\n        /* \"#utility.yul\":4512:4514   */\n      0x40\n        /* \"#utility.yul\":4505:4527   */\n      mstore\n        /* \"#utility.yul\":4295:4533   */\n      pop\n        /* \"#utility.yul\":4252:4533   */\n      pop\n      pop\n      jump\t// out\n        /* \"#utility.yul\":4539:4668   */\n    tag_109:\n        /* \"#utility.yul\":4573:4579   */\n      0x00\n        /* \"#utility.yul\":4600:4620   */\n      tag_186\n      tag_90\n      jump\t// in\n    tag_186:\n        /* \"#utility.yul\":4590:4620   */\n      swap1\n      pop\n        /* \"#utility.yul\":4629:4662   */\n      tag_187\n        /* \"#utility.yul\":4657:4661   */\n      dup3\n        /* \"#utility.yul\":4649:4655   */\n      dup3\n        /* \"#utility.yul\":4629:4662   */\n      tag_108\n      jump\t// in\n    tag_187:\n        /* \"#utility.yul\":4539:4668   */\n      swap2\n      swap1\n      pop\n      jump\t// out\n        /* \"#utility.yul\":4674:4982   */\n    tag_110:\n        /* \"#utility.yul\":4736:4740   */\n      0x00\n        /* \"#utility.yul\":4826:4844   */\n      0xffffffffffffffff\n        /* \"#utility.yul\":4818:4824   */\n      dup3\n        /* \"#utility.yul\":4815:4845   */\n      gt\n        /* \"#utility.yul\":4812:4868   */\n      iszero\n      tag_189\n      jumpi\n        /* \"#utility.yul\":4848:4866   */\n      tag_190\n      tag_107\n      jump\t// in\n    tag_190:\n        /* \"#utility.yul\":4812:4868   */\n    tag_189:\n        /* \"#utility.yul\":4886:4915   */\n      tag_191\n        /* \"#utility.yul\":4908:4914   */\n      dup3\n        /* \"#utility.yul\":4886:4915   */\n      tag_100\n      jump\t// in\n    tag_191:\n        /* \"#utility.yul\":4878:4915   */\n      swap1\n      pop\n        /* \"#utility.yul\":4970:4974   */\n      0x20\n        /* \"#utility.yul\":4964:4968   */\n      dup2\n        /* \"#utility.yul\":4960:4975   */\n      add\n        /* \"#utility.yul\":4952:4975   */\n      swap1\n      pop\n        /* \"#utility.yul\":4674:4982   */\n      swap2\n      swap1\n      pop\n      jump\t// out\n        /* \"#utility.yul\":4988:5136   */\n    tag_111:\n        /* \"#utility.yul\":5086:5092   */\n      dup3\n        /* \"#utility.yul\":5081:5084   */\n      dup2\n        /* \"#utility.yul\":5076:5079   */\n      dup4\n        /* \"#utility.yul\":5063:5093   */\n      calldatacopy\n        /* \"#utility.yul\":5127:5128   */\n      0x00\n        /* \"#utility.yul\":5118:5124   */\n      dup4\n        /* \"#utility.yul\":5113:5116   */\n      dup4\n        /* \"#utility.yul\":5109:5125   */\n      add\n        /* \"#utility.yul\":5102:5129   */\n      mstore\n        /* \"#utility.yul\":4988:5136   */\n      pop\n      pop\n      pop\n      jump\t// out\n        /* \"#utility.yul\":5142:5567   */\n    tag_112:\n        /* \"#utility.yul\":5220:5225   */\n      0x00\n        /* \"#utility.yul\":5245:5311   */\n      tag_194\n        /* \"#utility.yul\":5261:5310   */\n      tag_195\n        /* \"#utility.yul\":5303:5309   */\n      dup5\n        /* \"#utility.yul\":5261:5310   */\n      tag_110\n      jump\t// in\n    tag_195:\n        /* \"#utility.yul\":5245:5311   */\n      tag_109\n      jump\t// in\n    tag_194:\n        /* \"#utility.yul\":5236:5311   */\n      swap1\n      pop\n        /* \"#utility.yul\":5334:5340   */\n      dup3\n        /* \"#utility.yul\":5327:5332   */\n      dup2\n        /* \"#utility.yul\":5320:5341   */\n      mstore\n        /* \"#utility.yul\":5372:5376   */\n      0x20\n        /* \"#utility.yul\":5365:5370   */\n      dup2\n        /* \"#utility.yul\":5361:5377   */\n      add\n        /* \"#utility.yul\":5410:5413   */\n      dup5\n        /* \"#utility.yul\":5401:5407   */\n      dup5\n        /* \"#utility.yul\":5396:5399   */\n      dup5\n        /* \"#utility.yul\":5392:5408   */\n      add\n        /* \"#utility.yul\":5389:5414   */\n      gt\n        /* \"#utility.yul\":5386:5498   */\n      iszero\n      tag_196\n      jumpi\n        /* \"#utility.yul\":5417:5496   */\n      tag_197\n      tag_106\n      jump\t// in\n    tag_197:\n        /* \"#utility.yul\":5386:5498   */\n    tag_196:\n        /* \"#utility.yul\":5507:5561   */\n      tag_198\n        /* \"#utility.yul\":5554:5560   */\n      dup5\n        /* \"#utility.yul\":5549:5552   */\n      dup3\n        /* \"#utility.yul\":5544:5547   */\n      dup6\n        /* \"#utility.yul\":5507:5561   */\n      tag_111\n      jump\t// in\n    tag_198:\n        /* \"#utility.yul\":5226:5567   */\n      pop\n        /* \"#utility.yul\":5142:5567   */\n      swap4\n      swap3\n      pop\n      pop\n      pop\n      jump\t// out\n        /* \"#utility.yul\":5587:5927   */\n    tag_113:\n        /* \"#utility.yul\":5643:5648   */\n      0x00\n        /* \"#utility.yul\":5692:5695   */\n      dup3\n        /* \"#utility.yul\":5685:5689   */\n      0x1f\n        /* \"#utility.yul\":5677:5683   */\n      dup4\n        /* \"#utility.yul\":5673:5690   */\n      add\n        /* \"#utility.yul\":5669:5696   */\n      slt\n        /* \"#utility.yul\":5659:5781   */\n      tag_200\n      jumpi\n        /* \"#utility.yul\":5700:5779   */\n      tag_201\n      tag_105\n      jump\t// in\n    tag_201:\n        /* \"#utility.yul\":5659:5781   */\n    tag_200:\n        /* \"#utility.yul\":5817:5823   */\n      dup2\n        /* \"#utility.yul\":5804:5824   */\n      calldataload\n        /* \"#utility.yul\":5842:5921   */\n      tag_202\n        /* \"#utility.yul\":5917:5920   */\n      dup5\n        /* \"#utility.yul\":5909:5915   */\n      dup3\n        /* \"#utility.yul\":5902:5906   */\n      0x20\n        /* \"#utility.yul\":5894:5900   */\n      dup7\n        /* \"#utility.yul\":5890:5907   */\n      add\n        /* \"#utility.yul\":5842:5921   */\n      tag_112\n      jump\t// in\n    tag_202:\n        /* \"#utility.yul\":5833:5921   */\n      swap2\n      pop\n        /* \"#utility.yul\":5649:5927   */\n      pop\n        /* \"#utility.yul\":5587:5927   */\n      swap3\n      swap2\n      pop\n      pop\n      jump\t// out\n        /* \"#utility.yul\":5933:7092   */\n    tag_32:\n        /* \"#utility.yul\":6040:6046   */\n      0x00\n        /* \"#utility.yul\":6048:6054   */\n      dup1\n        /* \"#utility.yul\":6056:6062   */\n      0x00\n        /* \"#utility.yul\":6105:6107   */\n      0x60\n        /* \"#utility.yul\":6093:6102   */\n      dup5\n        /* \"#utility.yul\":6084:6091   */\n      dup7\n        /* \"#utility.yul\":6080:6103   */\n      sub\n        /* \"#utility.yul\":6076:6108   */\n      slt\n        /* \"#utility.yul\":6073:6192   */\n      iszero\n      tag_204\n      jumpi\n        /* \"#utility.yul\":6111:6190   */\n      tag_205\n      tag_91\n      jump\t// in\n    tag_205:\n        /* \"#utility.yul\":6073:6192   */\n    tag_204:\n        /* \"#utility.yul\":6259:6260   */\n      0x00\n        /* \"#utility.yul\":6248:6257   */\n      dup5\n        /* \"#utility.yul\":6244:6261   */\n      add\n        /* \"#utility.yul\":6231:6262   */\n      calldataload\n        /* \"#utility.yul\":6289:6307   */\n      0xffffffffffffffff\n        /* \"#utility.yul\":6281:6287   */\n      dup2\n        /* \"#utility.yul\":6278:6308   */\n      gt\n        /* \"#utility.yul\":6275:6392   */\n      iszero\n      tag_206\n      jumpi\n        /* \"#utility.yul\":6311:6390   */\n      tag_207\n      tag_92\n      jump\t// in\n    tag_207:\n        /* \"#utility.yul\":6275:6392   */\n    tag_206:\n        /* \"#utility.yul\":6416:6479   */\n      tag_208\n        /* \"#utility.yul\":6471:6478   */\n      dup7\n        /* \"#utility.yul\":6462:6468   */\n      dup3\n        /* \"#utility.yul\":6451:6460   */\n      dup8\n        /* \"#utility.yul\":6447:6469   */\n      add\n        /* \"#utility.yul\":6416:6479   */\n      tag_113\n      jump\t// in\n    tag_208:\n        /* \"#utility.yul\":6406:6479   */\n      swap4\n      pop\n        /* \"#utility.yul\":6202:6489   */\n      pop\n        /* \"#utility.yul\":6556:6558   */\n      0x20\n        /* \"#utility.yul\":6545:6554   */\n      dup5\n        /* \"#utility.yul\":6541:6559   */\n      add\n        /* \"#utility.yul\":6528:6560   */\n      calldataload\n        /* \"#utility.yul\":6587:6605   */\n      0xffffffffffffffff\n        /* \"#utility.yul\":6579:6585   */\n      dup2\n        /* \"#utility.yul\":6576:6606   */\n      gt\n        /* \"#utility.yul\":6573:6690   */\n      iszero\n      tag_209\n      jumpi\n        /* \"#utility.yul\":6609:6688   */\n      tag_210\n      tag_92\n      jump\t// in\n    tag_210:\n        /* \"#utility.yul\":6573:6690   */\n    tag_209:\n        /* \"#utility.yul\":6714:6777   */\n      tag_211\n        /* \"#utility.yul\":6769:6776   */\n      dup7\n        /* \"#utility.yul\":6760:6766   */\n      dup3\n        /* \"#utility.yul\":6749:6758   */\n      dup8\n        /* \"#utility.yul\":6745:6767   */\n      add\n        /* \"#utility.yul\":6714:6777   */\n      tag_113\n      jump\t// in\n    tag_211:\n        /* \"#utility.yul\":6704:6777   */\n      swap3\n      pop\n        /* \"#utility.yul\":6499:6787   */\n      pop\n        /* \"#utility.yul\":6854:6856   */\n      0x40\n        /* \"#utility.yul\":6843:6852   */\n      dup5\n        /* \"#utility.yul\":6839:6857   */\n      add\n        /* \"#utility.yul\":6826:6858   */\n      calldataload\n        /* \"#utility.yul\":6885:6903   */\n      0xffffffffffffffff\n        /* \"#utility.yul\":6877:6883   */\n      dup2\n        /* \"#utility.yul\":6874:6904   */\n      gt\n        /* \"#utility.yul\":6871:6988   */\n      iszero\n      tag_212\n      jumpi\n        /* \"#utility.yul\":6907:6986   */\n      tag_213\n      tag_92\n      jump\t// in\n    tag_213:\n        /* \"#utility.yul\":6871:6988   */\n    tag_212:\n        /* \"#utility.yul\":7012:7075   */\n      tag_214\n        /* \"#utility.yul\":7067:7074   */\n      dup7\n        /* \"#utility.yul\":7058:7064   */\n      dup3\n        /* \"#utility.yul\":7047:7056   */\n      dup8\n        /* \"#utility.yul\":7043:7065   */\n      add\n        /* \"#utility.yul\":7012:7075   */\n      tag_113\n      jump\t// in\n    tag_214:\n        /* \"#utility.yul\":7002:7075   */\n      swap2\n      pop\n        /* \"#utility.yul\":6797:7085   */\n      pop\n        /* \"#utility.yul\":5933:7092   */\n      swap3\n      pop\n      swap3\n      pop\n      swap3\n      jump\t// out\n        /* \"#utility.yul\":7098:7267   */\n    tag_114:\n        /* \"#utility.yul\":7238:7259   */\n      0x496e646578206f7574206f6620626f756e647300000000000000000000000000\n        /* \"#utility.yul\":7234:7235   */\n      0x00\n        /* \"#utility.yul\":7226:7232   */\n      dup3\n        /* \"#utility.yul\":7222:7236   */\n      add\n        /* \"#utility.yul\":7215:7260   */\n      mstore\n        /* \"#utility.yul\":7098:7267   */\n      pop\n      jump\t// out\n        /* \"#utility.yul\":7273:7639   */\n    tag_115:\n        /* \"#utility.yul\":7415:7418   */\n      0x00\n        /* \"#utility.yul\":7436:7503   */\n      tag_217\n        /* \"#utility.yul\":7500:7502   */\n      0x13\n        /* \"#utility.yul\":7495:7498   */\n      dup4\n        /* \"#utility.yul\":7436:7503   */\n      tag_98\n      jump\t// in\n    tag_217:\n        /* \"#utility.yul\":7429:7503   */\n      swap2\n      pop\n        /* \"#utility.yul\":7512:7605   */\n      tag_218\n        /* \"#utility.yul\":7601:7604   */\n      dup3\n        /* \"#utility.yul\":7512:7605   */\n      tag_114\n      jump\t// in\n    tag_218:\n        /* \"#utility.yul\":7630:7632   */\n      0x20\n        /* \"#utility.yul\":7625:7628   */\n      dup3\n        /* \"#utility.yul\":7621:7633   */\n      add\n        /* \"#utility.yul\":7614:7633   */\n      swap1\n      pop\n        /* \"#utility.yul\":7273:7639   */\n      swap2\n      swap1\n      pop\n      jump\t// out\n        /* \"#utility.yul\":7645:8064   */\n    tag_37:\n        /* \"#utility.yul\":7811:7815   */\n      0x00\n        /* \"#utility.yul\":7849:7851   */\n      0x20\n        /* \"#utility.yul\":7838:7847   */\n      dup3\n        /* \"#utility.yul\":7834:7852   */\n      add\n        /* \"#utility.yul\":7826:7852   */\n      swap1\n      pop\n        /* \"#utility.yul\":7898:7907   */\n      dup2\n        /* \"#utility.yul\":7892:7896   */\n      dup2\n        /* \"#utility.yul\":7888:7908   */\n      sub\n        /* \"#utility.yul\":7884:7885   */\n      0x00\n        /* \"#utility.yul\":7873:7882   */\n      dup4\n        /* \"#utility.yul\":7869:7886   */\n      add\n        /* \"#utility.yul\":7862:7909   */\n      mstore\n        /* \"#utility.yul\":7926:8057   */\n      tag_220\n        /* \"#utility.yul\":8052:8056   */\n      dup2\n        /* \"#utility.yul\":7926:8057   */\n      tag_115\n      jump\t// in\n    tag_220:\n        /* \"#utility.yul\":7918:8057   */\n      swap1\n      pop\n        /* \"#utility.yul\":7645:8064   */\n      swap2\n      swap1\n      pop\n      jump\t// out\n        /* \"#utility.yul\":8070:8250   */\n    tag_40:\n        /* \"#utility.yul\":8118:8195   */\n      0x4e487b7100000000000000000000000000000000000000000000000000000000\n        /* \"#utility.yul\":8115:8116   */\n      0x00\n        /* \"#utility.yul\":8108:8196   */\n      mstore\n        /* \"#utility.yul\":8215:8219   */\n      0x32\n        /* \"#utility.yul\":8212:8213   */\n      0x04\n        /* \"#utility.yul\":8205:8220   */\n      mstore\n        /* \"#utility.yul\":8239:8243   */\n      0x24\n        /* \"#utility.yul\":8236:8237   */\n      0x00\n        /* \"#utility.yul\":8229:8244   */\n      revert\n        /* \"#utility.yul\":8256:8436   */\n    tag_116:\n        /* \"#utility.yul\":8304:8381   */\n      0x4e487b7100000000000000000000000000000000000000000000000000000000\n        /* \"#utility.yul\":8301:8302   */\n      0x00\n        /* \"#utility.yul\":8294:8382   */\n      mstore\n        /* \"#utility.yul\":8401:8405   */\n      0x22\n        /* \"#utility.yul\":8398:8399   */\n      0x04\n        /* \"#utility.yul\":8391:8406   */\n      mstore\n        /* \"#utility.yul\":8425:8429   */\n      0x24\n        /* \"#utility.yul\":8422:8423   */\n      0x00\n        /* \"#utility.yul\":8415:8430   */\n      revert\n        /* \"#utility.yul\":8442:8762   */\n    tag_43:\n        /* \"#utility.yul\":8486:8492   */\n      0x00\n        /* \"#utility.yul\":8523:8524   */\n      0x02\n        /* \"#utility.yul\":8517:8521   */\n      dup3\n        /* \"#utility.yul\":8513:8525   */\n      div\n        /* \"#utility.yul\":8503:8525   */\n      swap1\n      pop\n        /* \"#utility.yul\":8570:8571   */\n      0x01\n        /* \"#utility.yul\":8564:8568   */\n      dup3\n        /* \"#utility.yul\":8560:8572   */\n      and\n        /* \"#utility.yul\":8591:8609   */\n      dup1\n        /* \"#utility.yul\":8581:8662   */\n      tag_224\n      jumpi\n        /* \"#utility.yul\":8647:8651   */\n      0x7f\n        /* \"#utility.yul\":8639:8645   */\n      dup3\n        /* \"#utility.yul\":8635:8652   */\n      and\n        /* \"#utility.yul\":8625:8652   */\n      swap2\n      pop\n        /* \"#utility.yul\":8581:8662   */\n    tag_224:\n        /* \"#utility.yul\":8709:8711   */\n      0x20\n        /* \"#utility.yul\":8701:8707   */\n      dup3\n        /* \"#utility.yul\":8698:8712   */\n      lt\n        /* \"#utility.yul\":8678:8696   */\n      dup2\n        /* \"#utility.yul\":8675:8713   */\n      sub\n        /* \"#utility.yul\":8672:8756   */\n      tag_225\n      jumpi\n        /* \"#utility.yul\":8728:8746   */\n      tag_226\n      tag_116\n      jump\t// in\n    tag_226:\n        /* \"#utility.yul\":8672:8756   */\n    tag_225:\n        /* \"#utility.yul\":8493:8762   */\n      pop\n        /* \"#utility.yul\":8442:8762   */\n      swap2\n      swap1\n      pop\n      jump\t// out\n        /* \"#utility.yul\":8768:8932   */\n    tag_117:\n        /* \"#utility.yul\":8908:8924   */\n      0x4e6f7420617574686f72697a6564000000000000000000000000000000000000\n        /* \"#utility.yul\":8904:8905   */\n      0x00\n        /* \"#utility.yul\":8896:8902   */\n      dup3\n        /* \"#utility.yul\":8892:8906   */\n      add\n        /* \"#utility.yul\":8885:8925   */\n      mstore\n        /* \"#utility.yul\":8768:8932   */\n      pop\n      jump\t// out\n        /* \"#utility.yul\":8938:9304   */\n    tag_118:\n        /* \"#utility.yul\":9080:9083   */\n      0x00\n        /* \"#utility.yul\":9101:9168   */\n      tag_229\n        /* \"#utility.yul\":9165:9167   */\n      0x0e\n        /* \"#utility.yul\":9160:9163   */\n      dup4\n        /* \"#utility.yul\":9101:9168   */\n      tag_98\n      jump\t// in\n    tag_229:\n        /* \"#utility.yul\":9094:9168   */\n      swap2\n      pop\n        /* \"#utility.yul\":9177:9270   */\n      tag_230\n        /* \"#utility.yul\":9266:9269   */\n      dup3\n        /* \"#utility.yul\":9177:9270   */\n      tag_117\n      jump\t// in\n    tag_230:\n        /* \"#utility.yul\":9295:9297   */\n      0x20\n        /* \"#utility.yul\":9290:9293   */\n      dup3\n        /* \"#utility.yul\":9286:9298   */\n      add\n        /* \"#utility.yul\":9279:9298   */\n      swap1\n      pop\n        /* \"#utility.yul\":8938:9304   */\n      swap2\n      swap1\n      pop\n      jump\t// out\n        /* \"#utility.yul\":9310:9729   */\n    tag_79:\n        /* \"#utility.yul\":9476:9480   */\n      0x00\n        /* \"#utility.yul\":9514:9516   */\n      0x20\n        /* \"#utility.yul\":9503:9512   */\n      dup3\n        /* \"#utility.yul\":9499:9517   */\n      add\n        /* \"#utility.yul\":9491:9517   */\n      swap1\n      pop\n        /* \"#utility.yul\":9563:9572   */\n      dup2\n        /* \"#utility.yul\":9557:9561   */\n      dup2\n        /* \"#utility.yul\":9553:9573   */\n      sub\n        /* \"#utility.yul\":9549:9550   */\n      0x00\n        /* \"#utility.yul\":9538:9547   */\n      dup4\n        /* \"#utility.yul\":9534:9551   */\n      add\n        /* \"#utility.yul\":9527:9574   */\n      mstore\n        /* \"#utility.yul\":9591:9722   */\n      tag_232\n        /* \"#utility.yul\":9717:9721   */\n      dup2\n        /* \"#utility.yul\":9591:9722   */\n      tag_118\n      jump\t// in\n    tag_232:\n        /* \"#utility.yul\":9583:9722   */\n      swap1\n      pop\n        /* \"#utility.yul\":9310:9729   */\n      swap2\n      swap1\n      pop\n      jump\t// out\n        /* \"#utility.yul\":9735:9906   */\n    tag_119:\n        /* \"#utility.yul\":9875:9898   */\n      0x53746f72616765206c696d697420726561636865640000000000000000000000\n        /* \"#utility.yul\":9871:9872   */\n      0x00\n        /* \"#utility.yul\":9863:9869   */\n      dup3\n        /* \"#utility.yul\":9859:9873   */\n      add\n        /* \"#utility.yul\":9852:9899   */\n      mstore\n        /* \"#utility.yul\":9735:9906   */\n      pop\n      jump\t// out\n        /* \"#utility.yul\":9912:10278   */\n    tag_120:\n        /* \"#utility.yul\":10054:10057   */\n      0x00\n        /* \"#utility.yul\":10075:10142   */\n      tag_235\n        /* \"#utility.yul\":10139:10141   */\n      0x15\n        /* \"#utility.yul\":10134:10137   */\n      dup4\n        /* \"#utility.yul\":10075:10142   */\n      tag_98\n      jump\t// in\n    tag_235:\n        /* \"#utility.yul\":10068:10142   */\n      swap2\n      pop\n        /* \"#utility.yul\":10151:10244   */\n      tag_236\n        /* \"#utility.yul\":10240:10243   */\n      dup3\n        /* \"#utility.yul\":10151:10244   */\n      tag_119\n      jump\t// in\n    tag_236:\n        /* \"#utility.yul\":10269:10271   */\n      0x20\n        /* \"#utility.yul\":10264:10267   */\n      dup3\n        /* \"#utility.yul\":10260:10272   */\n      add\n        /* \"#utility.yul\":10253:10272   */\n      swap1\n      pop\n        /* \"#utility.yul\":9912:10278   */\n      swap2\n      swap1\n      pop\n      jump\t// out\n        /* \"#utility.yul\":10284:10703   */\n    tag_83:\n        /* \"#utility.yul\":10450:10454   */\n      0x00\n        /* \"#utility.yul\":10488:10490   */\n      0x20\n        /* \"#utility.yul\":10477:10486   */\n      dup3\n        /* \"#utility.yul\":10473:10491   */\n      add\n        /* \"#utility.yul\":10465:10491   */\n      swap1\n      pop\n        /* \"#utility.yul\":10537:10546   */\n      dup2\n        /* \"#utility.yul\":10531:10535   */\n      dup2\n        /* \"#utility.yul\":10527:10547   */\n      sub\n        /* \"#utility.yul\":10523:10524   */\n      0x00\n        /* \"#utility.yul\":10512:10521   */\n      dup4\n        /* \"#utility.yul\":10508:10525   */\n      add\n        /* \"#utility.yul\":10501:10548   */\n      mstore\n        /* \"#utility.yul\":10565:10696   */\n      tag_238\n        /* \"#utility.yul\":10691:10695   */\n      dup2\n        /* \"#utility.yul\":10565:10696   */\n      tag_120\n      jump\t// in\n    tag_238:\n        /* \"#utility.yul\":10557:10696   */\n      swap1\n      pop\n        /* \"#utility.yul\":10284:10703   */\n      swap2\n      swap1\n      pop\n      jump\t// out\n        /* \"#utility.yul\":10709:10850   */\n    tag_121:\n        /* \"#utility.yul\":10758:10762   */\n      0x00\n        /* \"#utility.yul\":10781:10784   */\n      dup2\n        /* \"#utility.yul\":10773:10784   */\n      swap1\n      pop\n        /* \"#utility.yul\":10804:10807   */\n      dup2\n        /* \"#utility.yul\":10801:10802   */\n      0x00\n        /* \"#utility.yul\":10794:10808   */\n      mstore\n        /* \"#utility.yul\":10838:10842   */\n      0x20\n        /* \"#utility.yul\":10835:10836   */\n      0x00\n        /* \"#utility.yul\":10825:10843   */\n      keccak256\n        /* \"#utility.yul\":10817:10843   */\n      swap1\n      pop\n        /* \"#utility.yul\":10709:10850   */\n      swap2\n      swap1\n      pop\n      jump\t// out\n        /* \"#utility.yul\":10856:10949   */\n    tag_122:\n        /* \"#utility.yul\":10893:10899   */\n      0x00\n        /* \"#utility.yul\":10940:10942   */\n      0x20\n        /* \"#utility.yul\":10935:10937   */\n      0x1f\n        /* \"#utility.yul\":10928:10933   */\n      dup4\n        /* \"#utility.yul\":10924:10938   */\n      add\n        /* \"#utility.yul\":10920:10943   */\n      div\n        /* \"#utility.yul\":10910:10943   */\n      swap1\n      pop\n        /* \"#utility.yul\":10856:10949   */\n      swap2\n      swap1\n      pop\n      jump\t// out\n        /* \"#utility.yul\":10955:11062   */\n    tag_123:\n        /* \"#utility.yul\":10999:11007   */\n      0x00\n        /* \"#utility.yul\":11049:11054   */\n      dup3\n        /* \"#utility.yul\":11043:11047   */\n      dup3\n        /* \"#utility.yul\":11039:11055   */\n      shl\n        /* \"#utility.yul\":11018:11055   */\n      swap1\n      pop\n        /* \"#utility.yul\":10955:11062   */\n      swap3\n      swap2\n      pop\n      pop\n      jump\t// out\n        /* \"#utility.yul\":11068:11461   */\n    tag_124:\n        /* \"#utility.yul\":11137:11143   */\n      0x00\n        /* \"#utility.yul\":11187:11188   */\n      0x08\n        /* \"#utility.yul\":11175:11185   */\n      dup4\n        /* \"#utility.yul\":11171:11189   */\n      mul\n        /* \"#utility.yul\":11210:11307   */\n      tag_243\n        /* \"#utility.yul\":11240:11306   */\n      0xffffffffffffffffffffffffffffffffffffffffffffffffffffffffffffffff\n        /* \"#utility.yul\":11229:11238   */\n      dup3\n        /* \"#utility.yul\":11210:11307   */\n      tag_123\n      jump\t// in\n    tag_243:\n        /* \"#utility.yul\":11328:11367   */\n      tag_244\n        /* \"#utility.yul\":11358:11366   */\n      dup7\n        /* \"#utility.yul\":11347:11356   */\n      dup4\n        /* \"#utility.yul\":11328:11367   */\n      tag_123\n      jump\t// in\n    tag_244:\n        /* \"#utility.yul\":11316:11367   */\n      swap6\n      pop\n        /* \"#utility.yul\":11400:11404   */\n      dup1\n        /* \"#utility.yul\":11396:11405   */\n      not\n        /* \"#utility.yul\":11389:11394   */\n      dup5\n        /* \"#utility.yul\":11385:11406   */\n      and\n        /* \"#utility.yul\":11376:11406   */\n      swap4\n      pop\n        /* \"#utility.yul\":11449:11453   */\n      dup1\n        /* \"#utility.yul\":11439:11447   */\n      dup7\n        /* \"#utility.yul\":11435:11454   */\n      and\n        /* \"#utility.yul\":11428:11433   */\n      dup5\n        /* \"#utility.yul\":11425:11455   */\n      or\n        /* \"#utility.yul\":11415:11455   */\n      swap3\n      pop\n        /* \"#utility.yul\":11144:11461   */\n      pop\n      pop\n        /* \"#utility.yul\":11068:11461   */\n      swap4\n      swap3\n      pop\n      pop\n      pop\n      jump\t// out\n        /* \"#utility.yul\":11467:11527   */\n    tag_125:\n        /* \"#utility.yul\":11495:11498   */\n      0x00\n        /* \"#utility.yul\":11516:11521   */\n      dup2\n        /* \"#utility.yul\":11509:11521   */\n      swap1\n      pop\n        /* \"#utility.yul\":11467:11527   */\n      swap2\n      swap1\n      pop\n      jump\t// out\n        /* \"#utility.yul\":11533:11675   */\n    tag_126:\n        /* \"#utility.yul\":11583:11592   */\n      0x00\n        /* \"#utility.yul\":11616:11669   */\n      tag_247\n        /* \"#utility.yul\":11634:11668   */\n      tag_248\n        /* \"#utility.yul\":11643:11667   */\n      tag_249\n        /* \"#utility.yul\":11661:11666   */\n      dup5\n        /* \"#utility.yul\":11643:11667   */\n      tag_93\n      jump\t// in\n    tag_249:\n        /* \"#utility.yul\":11634:11668   */\n      tag_125\n      jump\t// in\n    tag_248:\n        /* \"#utility.yul\":11616:11669   */\n      tag_93\n      jump\t// in\n    tag_247:\n        /* \"#utility.yul\":11603:11669   */\n      swap1\n      pop\n        /* \"#utility.yul\":11533:11675   */\n      swap2\n      swap1\n      pop\n      jump\t// out\n        /* \"#utility.yul\":11681:11756   */\n    tag_127:\n        /* \"#utility.yul\":11724:11727   */\n      0x00\n        /* \"#utility.yul\":11745:11750   */\n      dup2\n        /* \"#utility.yul\":11738:11750   */\n      swap1\n      pop\n        /* \"#utility.yul\":11681:11756   */\n      swap2\n      swap1\n      pop\n      jump\t// out\n        /* \"#utility.yul\":11762:12031   */\n    tag_128:\n        /* \"#utility.yul\":11872:11911   */\n      tag_252\n        /* \"#utility.yul\":11903:11910   */\n      dup4\n        /* \"#utility.yul\":11872:11911   */\n      tag_126\n      jump\t// in\n    tag_252:\n        /* \"#utility.yul\":11933:12024   */\n      tag_253\n        /* \"#utility.yul\":11982:12023   */\n      tag_254\n        /* \"#utility.yul\":12006:12022   */\n      dup3\n        /* \"#utility.yul\":11982:12023   */\n      tag_127\n      jump\t// in\n    tag_254:\n        /* \"#utility.yul\":11974:11980   */\n      dup5\n        /* \"#utility.yul\":11967:11971   */\n      dup5\n        /* \"#utility.yul\":11961:11972   */\n      sload\n        /* \"#utility.yul\":11933:12024   */\n      tag_124\n      jump\t// in\n    tag_253:\n        /* \"#utility.yul\":11927:11931   */\n      dup3\n        /* \"#utility.yul\":11920:12025   */\n      sstore\n        /* \"#utility.yul\":11838:12031   */\n      pop\n        /* \"#utility.yul\":11762:12031   */\n      pop\n      pop\n      pop\n      jump\t// out\n        /* \"#utility.yul\":12037:12110   */\n    tag_129:\n        /* \"#utility.yul\":12082:12085   */\n      0x00\n        /* \"#utility.yul\":12037:12110   */\n      swap1\n      jump\t// out\n        /* \"#utility.yul\":12116:12305   */\n    tag_130:\n        /* \"#utility.yul\":12193:12225   */\n      tag_257\n      tag_129\n      jump\t// in\n    tag_257:\n        /* \"#utility.yul\":12234:12299   */\n      tag_258\n        /* \"#utility.yul\":12292:12298   */\n      dup2\n        /* \"#utility.yul\":12284:12290   */\n      dup5\n        /* \"#utility.yul\":12278:12282   */\n      dup5\n        /* \"#utility.yul\":12234:12299   */\n      tag_128\n      jump\t// in\n    tag_258:\n        /* \"#utility.yul\":12169:12305   */\n      pop\n        /* \"#utility.yul\":12116:12305   */\n      pop\n      pop\n      jump\t// out\n        /* \"#utility.yul\":12311:12525   */\n    tag_131:\n        /* \"#utility.yul\":12396:12397   */\n      0x00\n        /* \"#utility.yul\":12381:12519   */\n    tag_260:\n        /* \"#utility.yul\":12406:12415   */\n      dup3\n        /* \"#utility.yul\":12403:12404   */\n      dup2\n        /* \"#utility.yul\":12400:12416   */\n      lt\n        /* \"#utility.yul\":12381:12519   */\n      iszero\n      tag_262\n      jumpi\n        /* \"#utility.yul\":12458:12509   */\n      tag_263\n        /* \"#utility.yul\":12507:12508   */\n      0x00\n        /* \"#utility.yul\":12503:12504   */\n      dup3\n        /* \"#utility.yul\":12492:12501   */\n      dup5\n        /* \"#utility.yul\":12488:12505   */\n      add\n        /* \"#utility.yul\":12458:12509   */\n      tag_130\n      jump\t// in\n    tag_263:\n        /* \"#utility.yul\":12431:12432   */\n      0x01\n        /* \"#utility.yul\":12428:12429   */\n      dup2\n        /* \"#utility.yul\":12424:12433   */\n      add\n        /* \"#utility.yul\":12419:12433   */\n      swap1\n      pop\n        /* \"#utility.yul\":12381:12519   */\n      jump(tag_260)\n    tag_262:\n        /* \"#utility.yul\":12385:12399   */\n      pop\n        /* \"#utility.yul\":12311:12525   */\n      pop\n      pop\n      jump\t// out\n        /* \"#utility.yul\":12531:13277   */\n    tag_132:\n        /* \"#utility.yul\":12632:12634   */\n      0x1f\n        /* \"#utility.yul\":12627:12630   */\n      dup3\n        /* \"#utility.yul\":12624:12635   */\n      gt\n        /* \"#utility.yul\":12621:13270   */\n      iszero\n      tag_265\n      jumpi\n        /* \"#utility.yul\":12661:12671   */\n      dup3\n        /* \"#utility.yul\":12656:12659   */\n      dup3\n        /* \"#utility.yul\":12653:12672   */\n      gt\n        /* \"#utility.yul\":12650:13260   */\n      iszero\n      tag_266\n      jumpi\n        /* \"#utility.yul\":12707:12745   */\n      tag_267\n        /* \"#utility.yul\":12739:12744   */\n      dup2\n        /* \"#utility.yul\":12707:12745   */\n      tag_121\n      jump\t// in\n    tag_267:\n        /* \"#utility.yul\":12782:12804   */\n      tag_268\n        /* \"#utility.yul\":12800:12803   */\n      dup4\n        /* \"#utility.yul\":12782:12804   */\n      tag_122\n      jump\t// in\n    tag_268:\n        /* \"#utility.yul\":12841:12870   */\n      tag_269\n        /* \"#utility.yul\":12859:12869   */\n      dup6\n        /* \"#utility.yul\":12841:12870   */\n      tag_122\n      jump\t// in\n    tag_269:\n        /* \"#utility.yul\":13031:13033   */\n      0x20\n        /* \"#utility.yul\":13019:13029   */\n      dup7\n        /* \"#utility.yul\":13016:13034   */\n      lt\n        /* \"#utility.yul\":13013:13092   */\n      iszero\n      tag_270\n      jumpi\n        /* \"#utility.yul\":13073:13074   */\n      0x00\n        /* \"#utility.yul\":13057:13074   */\n      swap1\n      pop\n        /* \"#utility.yul\":13013:13092   */\n    tag_270:\n        /* \"#utility.yul\":13142:13154   */\n      dup1\n        /* \"#utility.yul\":13132:13140   */\n      dup4\n        /* \"#utility.yul\":13128:13155   */\n      add\n        /* \"#utility.yul\":13172:13246   */\n      tag_271\n        /* \"#utility.yul\":13232:13244   */\n      dup3\n        /* \"#utility.yul\":13218:13230   */\n      dup5\n        /* \"#utility.yul\":13214:13245   */\n      sub\n        /* \"#utility.yul\":13201:13212   */\n      dup3\n        /* \"#utility.yul\":13172:13246   */\n      tag_131\n      jump\t// in\n    tag_271:\n        /* \"#utility.yul\":12673:13260   */\n      pop\n      pop\n      pop\n      pop\n        /* \"#utility.yul\":12650:13260   */\n    tag_266:\n        /* \"#utility.yul\":12621:13270   */\n    tag_265:\n        /* \"#utility.yul\":12531:13277   */\n      pop\n      pop\n      pop\n      jump\t// out\n        /* \"#utility.yul\":13283:13400   */\n    tag_133:\n        /* \"#utility.yul\":13337:13345   */\n      0x00\n        /* \"#utility.yul\":13387:13392   */\n      dup3\n        /* \"#utility.yul\":13381:13385   */\n      dup3\n        /* \"#utility.yul\":13377:13393   */\n      shr\n        /* \"#utility.yul\":13356:13393   */\n      swap1\n      pop\n        /* \"#utility.yul\":13283:13400   */\n      swap3\n      swap2\n      pop\n      pop\n      jump\t// out\n        /* \"#utility.yul\":13406:13575   */\n    tag_134:\n        /* \"#utility.yul\":13450:13456   */\n      0x00\n        /* \"#utility.yul\":13483:13534   */\n      tag_274\n        /* \"#utility.yul\":13531:13532   */\n      0x00\n        /* \"#utility.yul\":13527:13533   */\n      not\n        /* \"#utility.yul\":13519:13524   */\n      dup5\n        /* \"#utility.yul\":13516:13517   */\n      0x08\n        /* \"#utility.yul\":13512:13525   */\n      mul\n        /* \"#utility.yul\":13483:13534   */\n      tag_133\n      jump\t// in\n    tag_274:\n        /* \"#utility.yul\":13479:13535   */\n      not\n        /* \"#utility.yul\":13564:13568   */\n      dup1\n        /* \"#utility.yul\":13558:13562   */\n      dup4\n        /* \"#utility.yul\":13554:13569   */\n      and\n        /* \"#utility.yul\":13544:13569   */\n      swap2\n      pop\n        /* \"#utility.yul\":13457:13575   */\n      pop\n        /* \"#utility.yul\":13406:13575   */\n      swap3\n      swap2\n      pop\n      pop\n      jump\t// out\n        /* \"#utility.yul\":13580:13875   */\n    tag_135:\n        /* \"#utility.yul\":13656:13660   */\n      0x00\n        /* \"#utility.yul\":13802:13831   */\n      tag_276\n        /* \"#utility.yul\":13827:13830   */\n      dup4\n        /* \"#utility.yul\":13821:13825   */\n      dup4\n        /* \"#utility.yul\":13802:13831   */\n      tag_134\n      jump\t// in\n    tag_276:\n        /* \"#utility.yul\":13794:13831   */\n      swap2\n      pop\n        /* \"#utility.yul\":13864:13867   */\n      dup3\n        /* \"#utility.yul\":13861:13862   */\n      0x02\n        /* \"#utility.yul\":13857:13868   */\n      mul\n        /* \"#utility.yul\":13851:13855   */\n      dup3\n        /* \"#utility.yul\":13848:13869   */\n      or\n        /* \"#utility.yul\":13840:13869   */\n      swap1\n      pop\n        /* \"#utility.yul\":13580:13875   */\n      swap3\n      swap2\n      pop\n      pop\n      jump\t// out\n        /* \"#utility.yul\":13880:15275   */\n    tag_86:\n        /* \"#utility.yul\":13997:14034   */\n      tag_278\n        /* \"#utility.yul\":14030:14033   */\n      dup3\n        /* \"#utility.yul\":13997:14034   */\n      tag_97\n      jump\t// in\n    tag_278:\n        /* \"#utility.yul\":14099:14117   */\n      0xffffffffffffffff\n        /* \"#utility.yul\":14091:14097   */\n      dup2\n        /* \"#utility.yul\":14088:14118   */\n      gt\n        /* \"#utility.yul\":14085:14141   */\n      iszero\n      tag_279\n      jumpi\n        /* \"#utility.yul\":14121:14139   */\n      tag_280\n      tag_107\n      jump\t// in\n    tag_280:\n        /* \"#utility.yul\":14085:14141   */\n    tag_279:\n        /* \"#utility.yul\":14165:14203   */\n      tag_281\n        /* \"#utility.yul\":14197:14201   */\n      dup3\n        /* \"#utility.yul\":14191:14202   */\n      sload\n        /* \"#utility.yul\":14165:14203   */\n      tag_43\n      jump\t// in\n    tag_281:\n        /* \"#utility.yul\":14250:14317   */\n      tag_282\n        /* \"#utility.yul\":14310:14316   */\n      dup3\n        /* \"#utility.yul\":14302:14308   */\n      dup3\n        /* \"#utility.yul\":14296:14300   */\n      dup6\n        /* \"#utility.yul\":14250:14317   */\n      tag_132\n      jump\t// in\n    tag_282:\n        /* \"#utility.yul\":14344:14345   */\n      0x00\n        /* \"#utility.yul\":14368:14372   */\n      0x20\n        /* \"#utility.yul\":14355:14372   */\n      swap1\n      pop\n        /* \"#utility.yul\":14400:14402   */\n      0x1f\n        /* \"#utility.yul\":14392:14398   */\n      dup4\n        /* \"#utility.yul\":14389:14403   */\n      gt\n        /* \"#utility.yul\":14417:14418   */\n      0x01\n        /* \"#utility.yul\":14412:15030   */\n      dup2\n      eq\n      tag_284\n      jumpi\n        /* \"#utility.yul\":15074:15075   */\n      0x00\n        /* \"#utility.yul\":15091:15097   */\n      dup5\n        /* \"#utility.yul\":15088:15165   */\n      iszero\n      tag_285\n      jumpi\n        /* \"#utility.yul\":15140:15149   */\n      dup3\n        /* \"#utility.yul\":15135:15138   */\n      dup8\n        /* \"#utility.yul\":15131:15150   */\n      add\n        /* \"#utility.yul\":15125:15151   */\n      mload\n        /* \"#utility.yul\":15116:15151   */\n      swap1\n      pop\n        /* \"#utility.yul\":15088:15165   */\n    tag_285:\n        /* \"#utility.yul\":15191:15258   */\n      tag_286\n        /* \"#utility.yul\":15251:15257   */\n      dup6\n        /* \"#utility.yul\":15244:15249   */\n      dup3\n        /* \"#utility.yul\":15191:15258   */\n      tag_135\n      jump\t// in\n    tag_286:\n        /* \"#utility.yul\":15185:15189   */\n      dup7\n        /* \"#utility.yul\":15178:15259   */\n      sstore\n        /* \"#utility.yul\":15047:15269   */\n      pop\n        /* \"#utility.yul\":14382:15269   */\n      jump(tag_283)\n        /* \"#utility.yul\":14412:15030   */\n    tag_284:\n        /* \"#utility.yul\":14464:14468   */\n      0x1f\n        /* \"#utility.yul\":14460:14469   */\n      not\n        /* \"#utility.yul\":14452:14458   */\n      dup5\n        /* \"#utility.yul\":14448:14470   */\n      and\n        /* \"#utility.yul\":14498:14535   */\n      tag_287\n        /* \"#utility.yul\":14530:14534   */\n      dup7\n        /* \"#utility.yul\":14498:14535   */\n      tag_121\n      jump\t// in\n    tag_287:\n        /* \"#utility.yul\":14557:14558   */\n      0x00\n        /* \"#utility.yul\":14571:14779   */\n    tag_288:\n        /* \"#utility.yul\":14585:14592   */\n      dup3\n        /* \"#utility.yul\":14582:14583   */\n      dup2\n        /* \"#utility.yul\":14579:14593   */\n      lt\n        /* \"#utility.yul\":14571:14779   */\n      iszero\n      tag_290\n      jumpi\n        /* \"#utility.yul\":14664:14673   */\n      dup5\n        /* \"#utility.yul\":14659:14662   */\n      dup10\n        /* \"#utility.yul\":14655:14674   */\n      add\n        /* \"#utility.yul\":14649:14675   */\n      mload\n        /* \"#utility.yul\":14641:14647   */\n      dup3\n        /* \"#utility.yul\":14634:14676   */\n      sstore\n        /* \"#utility.yul\":14715:14716   */\n      0x01\n        /* \"#utility.yul\":14707:14713   */\n      dup3\n        /* \"#utility.yul\":14703:14717   */\n      add\n        /* \"#utility.yul\":14693:14717   */\n      swap2\n      pop\n        /* \"#utility.yul\":14762:14764   */\n      0x20\n        /* \"#utility.yul\":14751:14760   */\n      dup6\n        /* \"#utility.yul\":14747:14765   */\n      add\n        /* \"#utility.yul\":14734:14765   */\n      swap5\n      pop\n        /* \"#utility.yul\":14608:14612   */\n      0x20\n        /* \"#utility.yul\":14605:14606   */\n      dup2\n        /* \"#utility.yul\":14601:14613   */\n      add\n        /* \"#utility.yul\":14596:14613   */\n      swap1\n      pop\n        /* \"#utility.yul\":14571:14779   */\n      jump(tag_288)\n    tag_290:\n        /* \"#utility.yul\":14807:14813   */\n      dup7\n        /* \"#utility.yul\":14798:14805   */\n      dup4\n        /* \"#utility.yul\":14795:14814   */\n      lt\n        /* \"#utility.yul\":14792:14971   */\n      iszero\n      tag_291\n      jumpi\n        /* \"#utility.yul\":14865:14874   */\n      dup5\n        /* \"#utility.yul\":14860:14863   */\n      dup10\n        /* \"#utility.yul\":14856:14875   */\n      add\n        /* \"#utility.yul\":14850:14876   */\n      mload\n        /* \"#utility.yul\":14908:14956   */\n      tag_292\n        /* \"#utility.yul\":14950:14954   */\n      0x1f\n        /* \"#utility.yul\":14942:14948   */\n      dup10\n        /* \"#utility.yul\":14938:14955   */\n      and\n        /* \"#utility.yul\":14927:14936   */\n      dup3\n        /* \"#utility.yul\":14908:14956   */\n      tag_134\n      jump\t// in\n    tag_292:\n        /* \"#utility.yul\":14900:14906   */\n      dup4\n        /* \"#utility.yul\":14893:14957   */\n      sstore\n        /* \"#utility.yul\":14815:14971   */\n      pop\n        /* \"#utility.yul\":14792:14971   */\n    tag_291:\n        /* \"#utility.yul\":15017:15018   */\n      0x01\n        /* \"#utility.yul\":15013:15014   */\n      0x02\n        /* \"#utility.yul\":15005:15011   */\n      dup9\n        /* \"#utility.yul\":15001:15015   */\n      mul\n        /* \"#utility.yul\":14997:15019   */\n      add\n        /* \"#utility.yul\":14991:14995   */\n      dup9\n        /* \"#utility.yul\":14984:15020   */\n      sstore\n        /* \"#utility.yul\":14419:15030   */\n      pop\n      pop\n      pop\n        /* \"#utility.yul\":14382:15269   */\n    tag_283:\n      pop\n        /* \"#utility.yul\":13972:15275   */\n      pop\n      pop\n      pop\n        /* \"#utility.yul\":13880:15275   */\n      pop\n      pop\n      jump\t// out\n\n    auxdata: 0xa264697066735822122096262f76d6f5c940e54d7582e57af9357712e6093ec28ee1e822d4813ca4083b64736f6c63430008220033\n}\n",
				"bytecode": {
					"linkReferences": {},
					"object": "6080604052348015600f57600080fd5b5033600160006101000a81548173ffffffffffffffffffffffffffffffffffffffff021916908373ffffffffffffffffffffffffffffffffffffffff160217905550610fc5806100606000396000f3fe608060405234801561001057600080fd5b50600436106100625760003560e01c806303e9e609146100675780630aeacb5e1461009a5780637d4cb964146100b85780638da5cb5b146100d6578063c8592e0b146100f4578063d4001ef214610127575b600080fd5b610081600480360381019061007c91906107b2565b610143565b604051610091949392919061087e565b60405180910390f35b6100a26103a5565b6040516100af91906108d8565b60405180910390f35b6100c06103b1565b6040516100cd91906108d8565b60405180910390f35b6100de6103b6565b6040516100eb9190610934565b60405180910390f35b61010e600480360381019061010991906107b2565b6103dc565b60405161011e949392919061087e565b60405180910390f35b610141600480360381019061013c9190610a84565b6105b4565b005b600060608060606000805490508510610191576040517f08c379a000000000000000000000000000000000000000000000000000000000815260040161018890610b77565b60405180910390fd5b60008086815481106101a6576101a5610b97565b5b9060005260206000209060040201604051806080016040529081600082015481526020016001820180546101d990610bf5565b80601f016020809104026020016040519081016040528092919081815260200182805461020590610bf5565b80156102525780601f1061022757610100808354040283529160200191610252565b820191906000526020600020905b81548152906001019060200180831161023557829003601f168201915b5050505050815260200160028201805461026b90610bf5565b80601f016020809104026020016040519081016040528092919081815260200182805461029790610bf5565b80156102e45780601f106102b9576101008083540402835291602001916102e4565b820191906000526020600020905b8154815290600101906020018083116102c757829003601f168201915b505050505081526020016003820180546102fd90610bf5565b80601f016020809104026020016040519081016040528092919081815260200182805461032990610bf5565b80156103765780601f1061034b57610100808354040283529160200191610376565b820191906000526020600020905b81548152906001019060200180831161035957829003601f168201915b505050505081525050905080600001518160200151826040015183606001519450945094509450509193509193565b60008080549050905090565b606481565b600160009054906101000a900473ffffffffffffffffffffffffffffffffffffffff1681565b600081815481106103ec57600080fd5b906000526020600020906004020160009150905080600001549080600101805461041590610bf5565b80601f016020809104026020016040519081016040528092919081815260200182805461044190610bf5565b801561048e5780601f106104635761010080835404028352916020019161048e565b820191906000526020600020905b81548152906001019060200180831161047157829003601f168201915b5050505050908060020180546104a390610bf5565b80601f01602080910402602001604051908101604052809291908181526020018280546104cf90610bf5565b801561051c5780601f106104f15761010080835404028352916020019161051c565b820191906000526020600020905b8154815290600101906020018083116104ff57829003601f168201915b50505050509080600301805461053190610bf5565b80601f016020809104026020016040519081016040528092919081815260200182805461055d90610bf5565b80156105aa5780601f1061057f576101008083540402835291602001916105aa565b820191906000526020600020905b81548152906001019060200180831161058d57829003601f168201915b5050505050905084565b600160009054906101000a900473ffffffffffffffffffffffffffffffffffffffff1673ffffffffffffffffffffffffffffffffffffffff163373ffffffffffffffffffffffffffffffffffffffff1614610644576040517f08c379a000000000000000000000000000000000000000000000000000000000815260040161063b90610c72565b60405180910390fd5b60646000805490501061068c576040517f08c379a000000000000000000000000000000000000000000000000000000000815260040161068390610cde565b60405180910390fd5b600060405180608001604052804281526020018581526020018481526020018381525090806001815401808255809150506001900390600052602060002090600402016000909190919091506000820151816000015560208201518160010190816106f79190610ebd565b50604082015181600201908161070d9190610ebd565b5060608201518160030190816107239190610ebd565b5050507fc27557253cfa793c3de4beda3cf3aad78548fbff6f148459c5d4e26e97d6e2584284848460405161075b949392919061087e565b60405180910390a1505050565b6000604051905090565b600080fd5b600080fd5b6000819050919050565b61078f8161077c565b811461079a57600080fd5b50565b6000813590506107ac81610786565b92915050565b6000602082840312156107c8576107c7610772565b5b60006107d68482850161079d565b91505092915050565b6107e88161077c565b82525050565b600081519050919050565b600082825260208201905092915050565b60005b8381101561082857808201518184015260208101905061080d565b60008484015250505050565b6000601f19601f8301169050919050565b6000610850826107ee565b61085a81856107f9565b935061086a81856020860161080a565b61087381610834565b840191505092915050565b600060808201905061089360008301876107df565b81810360208301526108a58186610845565b905081810360408301526108b98185610845565b905081810360608301526108cd8184610845565b905095945050505050565b60006020820190506108ed60008301846107df565b92915050565b600073ffffffffffffffffffffffffffffffffffffffff82169050919050565b600061091e826108f3565b9050919050565b61092e81610913565b82525050565b60006020820190506109496000830184610925565b92915050565b600080fd5b600080fd5b7f4e487b7100000000000000000000000000000000000000000000000000000000600052604160045260246000fd5b61099182610834565b810181811067ffffffffffffffff821117156109b0576109af610959565b5b80604052505050565b60006109c3610768565b90506109cf8282610988565b919050565b600067ffffffffffffffff8211156109ef576109ee610959565b5b6109f882610834565b9050602081019050919050565b82818337600083830152505050565b6000610a27610a22846109d4565b6109b9565b905082815260208101848484011115610a4357610a42610954565b5b610a4e848285610a05565b509392505050565b600082601f830112610a6b57610a6a61094f565b5b8135610a7b848260208601610a14565b91505092915050565b600080600060608486031215610a9d57610a9c610772565b5b600084013567ffffffffffffffff811115610abb57610aba610777565b5b610ac786828701610a56565b935050602084013567ffffffffffffffff811115610ae857610ae7610777565b5b610af486828701610a56565b925050604084013567ffffffffffffffff811115610b1557610b14610777565b5b610b2186828701610a56565b9150509250925092565b7f496e646578206f7574206f6620626f756e647300000000000000000000000000600082015250565b6000610b616013836107f9565b9150610b6c82610b2b565b602082019050919050565b60006020820190508181036000830152610b9081610b54565b9050919050565b7f4e487b7100000000000000000000000000000000000000000000000000000000600052603260045260246000fd5b7f4e487b7100000000000000000000000000000000000000000000000000000000600052602260045260246000fd5b60006002820490506001821680610c0d57607f821691505b602082108103610c2057610c1f610bc6565b5b50919050565b7f4e6f7420617574686f72697a6564000000000000000000000000000000000000600082015250565b6000610c5c600e836107f9565b9150610c6782610c26565b602082019050919050565b60006020820190508181036000830152610c8b81610c4f565b9050919050565b7f53746f72616765206c696d697420726561636865640000000000000000000000600082015250565b6000610cc86015836107f9565b9150610cd382610c92565b602082019050919050565b60006020820190508181036000830152610cf781610cbb565b9050919050565b60008190508160005260206000209050919050565b60006020601f8301049050919050565b600082821b905092915050565b600060088302610d607fffffffffffffffffffffffffffffffffffffffffffffffffffffffffffffffff82610d23565b610d6a8683610d23565b95508019841693508086168417925050509392505050565b6000819050919050565b6000610da7610da2610d9d8461077c565b610d82565b61077c565b9050919050565b6000819050919050565b610dc183610d8c565b610dd5610dcd82610dae565b848454610d30565b825550505050565b600090565b610dea610ddd565b610df5818484610db8565b505050565b60005b82811015610e1d57610e126000828401610de2565b600181019050610dfd565b505050565b601f821115610e715782821115610e7057610e3c81610cfe565b610e4583610d13565b610e4e85610d13565b6020861015610e5c57600090505b808301610e6b82840382610dfa565b505050505b5b505050565b600082821c905092915050565b6000610e9460001984600802610e76565b1980831691505092915050565b6000610ead8383610e83565b9150826002028217905092915050565b610ec6826107ee565b67ffffffffffffffff811115610edf57610ede610959565b5b610ee98254610bf5565b610ef4828285610e22565b600060209050601f831160018114610f275760008415610f15578287015190505b610f1f8582610ea1565b865550610f87565b601f198416610f3586610cfe565b60005b82811015610f5d57848901518255600182019150602085019450602081019050610f38565b86831015610f7a5784890151610f76601f891682610e83565b8355505b6001600288020188555050505b50505050505056fea264697066735822122096262f76d6f5c940e54d7582e57af9357712e6093ec28ee1e822d4813ca4083b64736f6c63430008220033",
					"opcodes": "PUSH1 0x80 PUSH1 0x40 MSTORE CALLVALUE DUP1 ISZERO PUSH1 0xF JUMPI PUSH1 0x0 DUP1 REVERT JUMPDEST POP CALLER PUSH1 0x1 PUSH1 0x0 PUSH2 0x100 EXP DUP2 SLOAD DUP2 PUSH20 0xFFFFFFFFFFFFFFFFFFFFFFFFFFFFFFFFFFFFFFFF MUL NOT AND SWAP1 DUP4 PUSH20 0xFFFFFFFFFFFFFFFFFFFFFFFFFFFFFFFFFFFFFFFF AND MUL OR SWAP1 SSTORE POP PUSH2 0xFC5 DUP1 PUSH2 0x60 PUSH1 0x0 CODECOPY PUSH1 0x0 RETURN INVALID PUSH1 0x80 PUSH1 0x40 MSTORE CALLVALUE DUP1 ISZERO PUSH2 0x10 JUMPI PUSH1 0x0 DUP1 REVERT JUMPDEST POP PUSH1 0x4 CALLDATASIZE LT PUSH2 0x62 JUMPI PUSH1 0x0 CALLDATALOAD PUSH1 0xE0 SHR DUP1 PUSH4 0x3E9E609 EQ PUSH2 0x67 JUMPI DUP1 PUSH4 0xAEACB5E EQ PUSH2 0x9A JUMPI DUP1 PUSH4 0x7D4CB964 EQ PUSH2 0xB8 JUMPI DUP1 PUSH4 0x8DA5CB5B EQ PUSH2 0xD6 JUMPI DUP1 PUSH4 0xC8592E0B EQ PUSH2 0xF4 JUMPI DUP1 PUSH4 0xD4001EF2 EQ PUSH2 0x127 JUMPI JUMPDEST PUSH1 0x0 DUP1 REVERT JUMPDEST PUSH2 0x81 PUSH1 0x4 DUP1 CALLDATASIZE SUB DUP2 ADD SWAP1 PUSH2 0x7C SWAP2 SWAP1 PUSH2 0x7B2 JUMP JUMPDEST PUSH2 0x143 JUMP JUMPDEST PUSH1 0x40 MLOAD PUSH2 0x91 SWAP5 SWAP4 SWAP3 SWAP2 SWAP1 PUSH2 0x87E JUMP JUMPDEST PUSH1 0x40 MLOAD DUP1 SWAP2 SUB SWAP1 RETURN JUMPDEST PUSH2 0xA2 PUSH2 0x3A5 JUMP JUMPDEST PUSH1 0x40 MLOAD PUSH2 0xAF SWAP2 SWAP1 PUSH2 0x8D8 JUMP JUMPDEST PUSH1 0x40 MLOAD DUP1 SWAP2 SUB SWAP1 RETURN JUMPDEST PUSH2 0xC0 PUSH2 0x3B1 JUMP JUMPDEST PUSH1 0x40 MLOAD PUSH2 0xCD SWAP2 SWAP1 PUSH2 0x8D8 JUMP JUMPDEST PUSH1 0x40 MLOAD DUP1 SWAP2 SUB SWAP1 RETURN JUMPDEST PUSH2 0xDE PUSH2 0x3B6 JUMP JUMPDEST PUSH1 0x40 MLOAD PUSH2 0xEB SWAP2 SWAP1 PUSH2 0x934 JUMP JUMPDEST PUSH1 0x40 MLOAD DUP1 SWAP2 SUB SWAP1 RETURN JUMPDEST PUSH2 0x10E PUSH1 0x4 DUP1 CALLDATASIZE SUB DUP2 ADD SWAP1 PUSH2 0x109 SWAP2 SWAP1 PUSH2 0x7B2 JUMP JUMPDEST PUSH2 0x3DC JUMP JUMPDEST PUSH1 0x40 MLOAD PUSH2 0x11E SWAP5 SWAP4 SWAP3 SWAP2 SWAP1 PUSH2 0x87E JUMP JUMPDEST PUSH1 0x40 MLOAD DUP1 SWAP2 SUB SWAP1 RETURN JUMPDEST PUSH2 0x141 PUSH1 0x4 DUP1 CALLDATASIZE SUB DUP2 ADD SWAP1 PUSH2 0x13C SWAP2 SWAP1 PUSH2 0xA84 JUMP JUMPDEST PUSH2 0x5B4 JUMP JUMPDEST STOP JUMPDEST PUSH1 0x0 PUSH1 0x60 DUP1 PUSH1 0x60 PUSH1 0x0 DUP1 SLOAD SWAP1 POP DUP6 LT PUSH2 0x191 JUMPI PUSH1 0x40 MLOAD PUSH32 0x8C379A000000000000000000000000000000000000000000000000000000000 DUP2 MSTORE PUSH1 0x4 ADD PUSH2 0x188 SWAP1 PUSH2 0xB77 JUMP JUMPDEST PUSH1 0x40 MLOAD DUP1 SWAP2 SUB SWAP1 REVERT JUMPDEST PUSH1 0x0 DUP1 DUP7 DUP2 SLOAD DUP2 LT PUSH2 0x1A6 JUMPI PUSH2 0x1A5 PUSH2 0xB97 JUMP JUMPDEST JUMPDEST SWAP1 PUSH1 0x0 MSTORE PUSH1 0x20 PUSH1 0x0 KECCAK256 SWAP1 PUSH1 0x4 MUL ADD PUSH1 0x40 MLOAD DUP1 PUSH1 0x80 ADD PUSH1 0x40 MSTORE SWAP1 DUP2 PUSH1 0x0 DUP3 ADD SLOAD DUP2 MSTORE PUSH1 0x20 ADD PUSH1 0x1 DUP3 ADD DUP1 SLOAD PUSH2 0x1D9 SWAP1 PUSH2 0xBF5 JUMP JUMPDEST DUP1 PUSH1 0x1F ADD PUSH1 0x20 DUP1 SWAP2 DIV MUL PUSH1 0x20 ADD PUSH1 0x40 MLOAD SWAP1 DUP2 ADD PUSH1 0x40 MSTORE DUP1 SWAP3 SWAP2 SWAP1 DUP2 DUP2 MSTORE PUSH1 0x20 ADD DUP3 DUP1 SLOAD PUSH2 0x205 SWAP1 PUSH2 0xBF5 JUMP JUMPDEST DUP1 ISZERO PUSH2 0x252 JUMPI DUP1 PUSH1 0x1F LT PUSH2 0x227 JUMPI PUSH2 0x100 DUP1 DUP4 SLOAD DIV MUL DUP4 MSTORE SWAP2 PUSH1 0x20 ADD SWAP2 PUSH2 0x252 JUMP JUMPDEST DUP3 ADD SWAP2 SWAP1 PUSH1 0x0 MSTORE PUSH1 0x20 PUSH1 0x0 KECCAK256 SWAP1 JUMPDEST DUP2 SLOAD DUP2 MSTORE SWAP1 PUSH1 0x1 ADD SWAP1 PUSH1 0x20 ADD DUP1 DUP4 GT PUSH2 0x235 JUMPI DUP3 SWAP1 SUB PUSH1 0x1F AND DUP3 ADD SWAP2 JUMPDEST POP POP POP POP POP DUP2 MSTORE PUSH1 0x20 ADD PUSH1 0x2 DUP3 ADD DUP1 SLOAD PUSH2 0x26B SWAP1 PUSH2 0xBF5 JUMP JUMPDEST DUP1 PUSH1 0x1F ADD PUSH1 0x20 DUP1 SWAP2 DIV MUL PUSH1 0x20 ADD PUSH1 0x40 MLOAD SWAP1 DUP2 ADD PUSH1 0x40 MSTORE DUP1 SWAP3 SWAP2 SWAP1 DUP2 DUP2 MSTORE PUSH1 0x20 ADD DUP3 DUP1 SLOAD PUSH2 0x297 SWAP1 PUSH2 0xBF5 JUMP JUMPDEST DUP1 ISZERO PUSH2 0x2E4 JUMPI DUP1 PUSH1 0x1F LT PUSH2 0x2B9 JUMPI PUSH2 0x100 DUP1 DUP4 SLOAD DIV MUL DUP4 MSTORE SWAP2 PUSH1 0x20 ADD SWAP2 PUSH2 0x2E4 JUMP JUMPDEST DUP3 ADD SWAP2 SWAP1 PUSH1 0x0 MSTORE PUSH1 0x20 PUSH1 0x0 KECCAK256 SWAP1 JUMPDEST DUP2 SLOAD DUP2 MSTORE SWAP1 PUSH1 0x1 ADD SWAP1 PUSH1 0x20 ADD DUP1 DUP4 GT PUSH2 0x2C7 JUMPI DUP3 SWAP1 SUB PUSH1 0x1F AND DUP3 ADD SWAP2 JUMPDEST POP POP POP POP POP DUP2 MSTORE PUSH1 0x20 ADD PUSH1 0x3 DUP3 ADD DUP1 SLOAD PUSH2 0x2FD SWAP1 PUSH2 0xBF5 JUMP JUMPDEST DUP1 PUSH1 0x1F ADD PUSH1 0x20 DUP1 SWAP2 DIV MUL PUSH1 0x20 ADD PUSH1 0x40 MLOAD SWAP1 DUP2 ADD PUSH1 0x40 MSTORE DUP1 SWAP3 SWAP2 SWAP1 DUP2 DUP2 MSTORE PUSH1 0x20 ADD DUP3 DUP1 SLOAD PUSH2 0x329 SWAP1 PUSH2 0xBF5 JUMP JUMPDEST DUP1 ISZERO PUSH2 0x376 JUMPI DUP1 PUSH1 0x1F LT PUSH2 0x34B JUMPI PUSH2 0x100 DUP1 DUP4 SLOAD DIV MUL DUP4 MSTORE SWAP2 PUSH1 0x20 ADD SWAP2 PUSH2 0x376 JUMP JUMPDEST DUP3 ADD SWAP2 SWAP1 PUSH1 0x0 MSTORE PUSH1 0x20 PUSH1 0x0 KECCAK256 SWAP1 JUMPDEST DUP2 SLOAD DUP2 MSTORE SWAP1 PUSH1 0x1 ADD SWAP1 PUSH1 0x20 ADD DUP1 DUP4 GT PUSH2 0x359 JUMPI DUP3 SWAP1 SUB PUSH1 0x1F AND DUP3 ADD SWAP2 JUMPDEST POP POP POP POP POP DUP2 MSTORE POP POP SWAP1 POP DUP1 PUSH1 0x0 ADD MLOAD DUP2 PUSH1 0x20 ADD MLOAD DUP3 PUSH1 0x40 ADD MLOAD DUP4 PUSH1 0x60 ADD MLOAD SWAP5 POP SWAP5 POP SWAP5 POP SWAP5 POP POP SWAP2 SWAP4 POP SWAP2 SWAP4 JUMP JUMPDEST PUSH1 0x0 DUP1 DUP1 SLOAD SWAP1 POP SWAP1 POP SWAP1 JUMP JUMPDEST PUSH1 0x64 DUP2 JUMP JUMPDEST PUSH1 0x1 PUSH1 0x0 SWAP1 SLOAD SWAP1 PUSH2 0x100 EXP SWAP1 DIV PUSH20 0xFFFFFFFFFFFFFFFFFFFFFFFFFFFFFFFFFFFFFFFF AND DUP2 JUMP JUMPDEST PUSH1 0x0 DUP2 DUP2 SLOAD DUP2 LT PUSH2 0x3EC JUMPI PUSH1 0x0 DUP1 REVERT JUMPDEST SWAP1 PUSH1 0x0 MSTORE PUSH1 0x20 PUSH1 0x0 KECCAK256 SWAP1 PUSH1 0x4 MUL ADD PUSH1 0x0 SWAP2 POP SWAP1 POP DUP1 PUSH1 0x0 ADD SLOAD SWAP1 DUP1 PUSH1 0x1 ADD DUP1 SLOAD PUSH2 0x415 SWAP1 PUSH2 0xBF5 JUMP JUMPDEST DUP1 PUSH1 0x1F ADD PUSH1 0x20 DUP1 SWAP2 DIV MUL PUSH1 0x20 ADD PUSH1 0x40 MLOAD SWAP1 DUP2 ADD PUSH1 0x40 MSTORE DUP1 SWAP3 SWAP2 SWAP1 DUP2 DUP2 MSTORE PUSH1 0x20 ADD DUP3 DUP1 SLOAD PUSH2 0x441 SWAP1 PUSH2 0xBF5 JUMP JUMPDEST DUP1 ISZERO PUSH2 0x48E JUMPI DUP1 PUSH1 0x1F LT PUSH2 0x463 JUMPI PUSH2 0x100 DUP1 DUP4 SLOAD DIV MUL DUP4 MSTORE SWAP2 PUSH1 0x20 ADD SWAP2 PUSH2 0x48E JUMP JUMPDEST DUP3 ADD SWAP2 SWAP1 PUSH1 0x0 MSTORE PUSH1 0x20 PUSH1 0x0 KECCAK256 SWAP1 JUMPDEST DUP2 SLOAD DUP2 MSTORE SWAP1 PUSH1 0x1 ADD SWAP1 PUSH1 0x20 ADD DUP1 DUP4 GT PUSH2 0x471 JUMPI DUP3 SWAP1 SUB PUSH1 0x1F AND DUP3 ADD SWAP2 JUMPDEST POP POP POP POP POP SWAP1 DUP1 PUSH1 0x2 ADD DUP1 SLOAD PUSH2 0x4A3 SWAP1 PUSH2 0xBF5 JUMP JUMPDEST DUP1 PUSH1 0x1F ADD PUSH1 0x20 DUP1 SWAP2 DIV MUL PUSH1 0x20 ADD PUSH1 0x40 MLOAD SWAP1 DUP2 ADD PUSH1 0x40 MSTORE DUP1 SWAP3 SWAP2 SWAP1 DUP2 DUP2 MSTORE PUSH1 0x20 ADD DUP3 DUP1 SLOAD PUSH2 0x4CF SWAP1 PUSH2 0xBF5 JUMP JUMPDEST DUP1 ISZERO PUSH2 0x51C JUMPI DUP1 PUSH1 0x1F LT PUSH2 0x4F1 JUMPI PUSH2 0x100 DUP1 DUP4 SLOAD DIV MUL DUP4 MSTORE SWAP2 PUSH1 0x20 ADD SWAP2 PUSH2 0x51C JUMP JUMPDEST DUP3 ADD SWAP2 SWAP1 PUSH1 0x0 MSTORE PUSH1 0x20 PUSH1 0x0 KECCAK256 SWAP1 JUMPDEST DUP2 SLOAD DUP2 MSTORE SWAP1 PUSH1 0x1 ADD SWAP1 PUSH1 0x20 ADD DUP1 DUP4 GT PUSH2 0x4FF JUMPI DUP3 SWAP1 SUB PUSH1 0x1F AND DUP3 ADD SWAP2 JUMPDEST POP POP POP POP POP SWAP1 DUP1 PUSH1 0x3 ADD DUP1 SLOAD PUSH2 0x531 SWAP1 PUSH2 0xBF5 JUMP JUMPDEST DUP1 PUSH1 0x1F ADD PUSH1 0x20 DUP1 SWAP2 DIV MUL PUSH1 0x20 ADD PUSH1 0x40 MLOAD SWAP1 DUP2 ADD PUSH1 0x40 MSTORE DUP1 SWAP3 SWAP2 SWAP1 DUP2 DUP2 MSTORE PUSH1 0x20 ADD DUP3 DUP1 SLOAD PUSH2 0x55D SWAP1 PUSH2 0xBF5 JUMP JUMPDEST DUP1 ISZERO PUSH2 0x5AA JUMPI DUP1 PUSH1 0x1F LT PUSH2 0x57F JUMPI PUSH2 0x100 DUP1 DUP4 SLOAD DIV MUL DUP4 MSTORE SWAP2 PUSH1 0x20 ADD SWAP2 PUSH2 0x5AA JUMP JUMPDEST DUP3 ADD SWAP2 SWAP1 PUSH1 0x0 MSTORE PUSH1 0x20 PUSH1 0x0 KECCAK256 SWAP1 JUMPDEST DUP2 SLOAD DUP2 MSTORE SWAP1 PUSH1 0x1 ADD SWAP1 PUSH1 0x20 ADD DUP1 DUP4 GT PUSH2 0x58D JUMPI DUP3 SWAP1 SUB PUSH1 0x1F AND DUP3 ADD SWAP2 JUMPDEST POP POP POP POP POP SWAP1 POP DUP5 JUMP JUMPDEST PUSH1 0x1 PUSH1 0x0 SWAP1 SLOAD SWAP1 PUSH2 0x100 EXP SWAP1 DIV PUSH20 0xFFFFFFFFFFFFFFFFFFFFFFFFFFFFFFFFFFFFFFFF AND PUSH20 0xFFFFFFFFFFFFFFFFFFFFFFFFFFFFFFFFFFFFFFFF AND CALLER PUSH20 0xFFFFFFFFFFFFFFFFFFFFFFFFFFFFFFFFFFFFFFFF AND EQ PUSH2 0x644 JUMPI PUSH1 0x40 MLOAD PUSH32 0x8C379A000000000000000000000000000000000000000000000000000000000 DUP2 MSTORE PUSH1 0x4 ADD PUSH2 0x63B SWAP1 PUSH2 0xC72 JUMP JUMPDEST PUSH1 0x40 MLOAD DUP1 SWAP2 SUB SWAP1 REVERT JUMPDEST PUSH1 0x64 PUSH1 0x0 DUP1 SLOAD SWAP1 POP LT PUSH2 0x68C JUMPI PUSH1 0x40 MLOAD PUSH32 0x8C379A000000000000000000000000000000000000000000000000000000000 DUP2 MSTORE PUSH1 0x4 ADD PUSH2 0x683 SWAP1 PUSH2 0xCDE JUMP JUMPDEST PUSH1 0x40 MLOAD DUP1 SWAP2 SUB SWAP1 REVERT JUMPDEST PUSH1 0x0 PUSH1 0x40 MLOAD DUP1 PUSH1 0x80 ADD PUSH1 0x40 MSTORE DUP1 TIMESTAMP DUP2 MSTORE PUSH1 0x20 ADD DUP6 DUP2 MSTORE PUSH1 0x20 ADD DUP5 DUP2 MSTORE PUSH1 0x20 ADD DUP4 DUP2 MSTORE POP SWAP1 DUP1 PUSH1 0x1 DUP2 SLOAD ADD DUP1 DUP3 SSTORE DUP1 SWAP2 POP POP PUSH1 0x1 SWAP1 SUB SWAP1 PUSH1 0x0 MSTORE PUSH1 0x20 PUSH1 0x0 KECCAK256 SWAP1 PUSH1 0x4 MUL ADD PUSH1 0x0 SWAP1 SWAP2 SWAP1 SWAP2 SWAP1 SWAP2 POP PUSH1 0x0 DUP3 ADD MLOAD DUP2 PUSH1 0x0 ADD SSTORE PUSH1 0x20 DUP3 ADD MLOAD DUP2 PUSH1 0x1 ADD SWAP1 DUP2 PUSH2 0x6F7 SWAP2 SWAP1 PUSH2 0xEBD JUMP JUMPDEST POP PUSH1 0x40 DUP3 ADD MLOAD DUP2 PUSH1 0x2 ADD SWAP1 DUP2 PUSH2 0x70D SWAP2 SWAP1 PUSH2 0xEBD JUMP JUMPDEST POP PUSH1 0x60 DUP3 ADD MLOAD DUP2 PUSH1 0x3 ADD SWAP1 DUP2 PUSH2 0x723 SWAP2 SWAP1 PUSH2 0xEBD JUMP JUMPDEST POP POP POP PUSH32 0xC27557253CFA793C3DE4BEDA3CF3AAD78548FBFF6F148459C5D4E26E97D6E258 TIMESTAMP DUP5 DUP5 DUP5 PUSH1 0x40 MLOAD PUSH2 0x75B SWAP5 SWAP4 SWAP3 SWAP2 SWAP1 PUSH2 0x87E JUMP JUMPDEST PUSH1 0x40 MLOAD DUP1 SWAP2 SUB SWAP1 LOG1 POP POP POP JUMP JUMPDEST PUSH1 0x0 PUSH1 0x40 MLOAD SWAP1 POP SWAP1 JUMP JUMPDEST PUSH1 0x0 DUP1 REVERT JUMPDEST PUSH1 0x0 DUP1 REVERT JUMPDEST PUSH1 0x0 DUP2 SWAP1 POP SWAP2 SWAP1 POP JUMP JUMPDEST PUSH2 0x78F DUP2 PUSH2 0x77C JUMP JUMPDEST DUP2 EQ PUSH2 0x79A JUMPI PUSH1 0x0 DUP1 REVERT JUMPDEST POP JUMP JUMPDEST PUSH1 0x0 DUP2 CALLDATALOAD SWAP1 POP PUSH2 0x7AC DUP2 PUSH2 0x786 JUMP JUMPDEST SWAP3 SWAP2 POP POP JUMP JUMPDEST PUSH1 0x0 PUSH1 0x20 DUP3 DUP5 SUB SLT ISZERO PUSH2 0x7C8 JUMPI PUSH2 0x7C7 PUSH2 0x772 JUMP JUMPDEST JUMPDEST PUSH1 0x0 PUSH2 0x7D6 DUP5 DUP3 DUP6 ADD PUSH2 0x79D JUMP JUMPDEST SWAP2 POP POP SWAP3 SWAP2 POP POP JUMP JUMPDEST PUSH2 0x7E8 DUP2 PUSH2 0x77C JUMP JUMPDEST DUP3 MSTORE POP POP JUMP JUMPDEST PUSH1 0x0 DUP2 MLOAD SWAP1 POP SWAP2 SWAP1 POP JUMP JUMPDEST PUSH1 0x0 DUP3 DUP3 MSTORE PUSH1 0x20 DUP3 ADD SWAP1 POP SWAP3 SWAP2 POP POP JUMP JUMPDEST PUSH1 0x0 JUMPDEST DUP4 DUP2 LT ISZERO PUSH2 0x828 JUMPI DUP1 DUP3 ADD MLOAD DUP2 DUP5 ADD MSTORE PUSH1 0x20 DUP2 ADD SWAP1 POP PUSH2 0x80D JUMP JUMPDEST PUSH1 0x0 DUP5 DUP5 ADD MSTORE POP POP POP POP JUMP JUMPDEST PUSH1 0x0 PUSH1 0x1F NOT PUSH1 0x1F DUP4 ADD AND SWAP1 POP SWAP2 SWAP1 POP JUMP JUMPDEST PUSH1 0x0 PUSH2 0x850 DUP3 PUSH2 0x7EE JUMP JUMPDEST PUSH2 0x85A DUP2 DUP6 PUSH2 0x7F9 JUMP JUMPDEST SWAP4 POP PUSH2 0x86A DUP2 DUP6 PUSH1 0x20 DUP7 ADD PUSH2 0x80A JUMP JUMPDEST PUSH2 0x873 DUP2 PUSH2 0x834 JUMP JUMPDEST DUP5 ADD SWAP2 POP POP SWAP3 SWAP2 POP POP JUMP JUMPDEST PUSH1 0x0 PUSH1 0x80 DUP3 ADD SWAP1 POP PUSH2 0x893 PUSH1 0x0 DUP4 ADD DUP8 PUSH2 0x7DF JUMP JUMPDEST DUP2 DUP2 SUB PUSH1 0x20 DUP4 ADD MSTORE PUSH2 0x8A5 DUP2 DUP7 PUSH2 0x845 JUMP JUMPDEST SWAP1 POP DUP2 DUP2 SUB PUSH1 0x40 DUP4 ADD MSTORE PUSH2 0x8B9 DUP2 DUP6 PUSH2 0x845 JUMP JUMPDEST SWAP1 POP DUP2 DUP2 SUB PUSH1 0x60 DUP4 ADD MSTORE PUSH2 0x8CD DUP2 DUP5 PUSH2 0x845 JUMP JUMPDEST SWAP1 POP SWAP6 SWAP5 POP POP POP POP POP JUMP JUMPDEST PUSH1 0x0 PUSH1 0x20 DUP3 ADD SWAP1 POP PUSH2 0x8ED PUSH1 0x0 DUP4 ADD DUP5 PUSH2 0x7DF JUMP JUMPDEST SWAP3 SWAP2 POP POP JUMP JUMPDEST PUSH1 0x0 PUSH20 0xFFFFFFFFFFFFFFFFFFFFFFFFFFFFFFFFFFFFFFFF DUP3 AND SWAP1 POP SWAP2 SWAP1 POP JUMP JUMPDEST PUSH1 0x0 PUSH2 0x91E DUP3 PUSH2 0x8F3 JUMP JUMPDEST SWAP1 POP SWAP2 SWAP1 POP JUMP JUMPDEST PUSH2 0x92E DUP2 PUSH2 0x913 JUMP JUMPDEST DUP3 MSTORE POP POP JUMP JUMPDEST PUSH1 0x0 PUSH1 0x20 DUP3 ADD SWAP1 POP PUSH2 0x949 PUSH1 0x0 DUP4 ADD DUP5 PUSH2 0x925 JUMP JUMPDEST SWAP3 SWAP2 POP POP JUMP JUMPDEST PUSH1 0x0 DUP1 REVERT JUMPDEST PUSH1 0x0 DUP1 REVERT JUMPDEST PUSH32 0x4E487B7100000000000000000000000000000000000000000000000000000000 PUSH1 0x0 MSTORE PUSH1 0x41 PUSH1 0x4 MSTORE PUSH1 0x24 PUSH1 0x0 REVERT JUMPDEST PUSH2 0x991 DUP3 PUSH2 0x834 JUMP JUMPDEST DUP2 ADD DUP2 DUP2 LT PUSH8 0xFFFFFFFFFFFFFFFF DUP3 GT OR ISZERO PUSH2 0x9B0 JUMPI PUSH2 0x9AF PUSH2 0x959 JUMP JUMPDEST JUMPDEST DUP1 PUSH1 0x40 MSTORE POP POP POP JUMP JUMPDEST PUSH1 0x0 PUSH2 0x9C3 PUSH2 0x768 JUMP JUMPDEST SWAP1 POP PUSH2 0x9CF DUP3 DUP3 PUSH2 0x988 JUMP JUMPDEST SWAP2 SWAP1 POP JUMP JUMPDEST PUSH1 0x0 PUSH8 0xFFFFFFFFFFFFFFFF DUP3 GT ISZERO PUSH2 0x9EF JUMPI PUSH2 0x9EE PUSH2 0x959 JUMP JUMPDEST JUMPDEST PUSH2 0x9F8 DUP3 PUSH2 0x834 JUMP JUMPDEST SWAP1 POP PUSH1 0x20 DUP2 ADD SWAP1 POP SWAP2 SWAP1 POP JUMP JUMPDEST DUP3 DUP2 DUP4 CALLDATACOPY PUSH1 0x0 DUP4 DUP4 ADD MSTORE POP POP POP JUMP JUMPDEST PUSH1 0x0 PUSH2 0xA27 PUSH2 0xA22 DUP5 PUSH2 0x9D4 JUMP JUMPDEST PUSH2 0x9B9 JUMP JUMPDEST SWAP1 POP DUP3 DUP2 MSTORE PUSH1 0x20 DUP2 ADD DUP5 DUP5 DUP5 ADD GT ISZERO PUSH2 0xA43 JUMPI PUSH2 0xA42 PUSH2 0x954 JUMP JUMPDEST JUMPDEST PUSH2 0xA4E DUP5 DUP3 DUP6 PUSH2 0xA05 JUMP JUMPDEST POP SWAP4 SWAP3 POP POP POP JUMP JUMPDEST PUSH1 0x0 DUP3 PUSH1 0x1F DUP4 ADD SLT PUSH2 0xA6B JUMPI PUSH2 0xA6A PUSH2 0x94F JUMP JUMPDEST JUMPDEST DUP2 CALLDATALOAD PUSH2 0xA7B DUP5 DUP3 PUSH1 0x20 DUP7 ADD PUSH2 0xA14 JUMP JUMPDEST SWAP2 POP POP SWAP3 SWAP2 POP POP JUMP JUMPDEST PUSH1 0x0 DUP1 PUSH1 0x0 PUSH1 0x60 DUP5 DUP7 SUB SLT ISZERO PUSH2 0xA9D JUMPI PUSH2 0xA9C PUSH2 0x772 JUMP JUMPDEST JUMPDEST PUSH1 0x0 DUP5 ADD CALLDATALOAD PUSH8 0xFFFFFFFFFFFFFFFF DUP2 GT ISZERO PUSH2 0xABB JUMPI PUSH2 0xABA PUSH2 0x777 JUMP JUMPDEST JUMPDEST PUSH2 0xAC7 DUP7 DUP3 DUP8 ADD PUSH2 0xA56 JUMP JUMPDEST SWAP4 POP POP PUSH1 0x20 DUP5 ADD CALLDATALOAD PUSH8 0xFFFFFFFFFFFFFFFF DUP2 GT ISZERO PUSH2 0xAE8 JUMPI PUSH2 0xAE7 PUSH2 0x777 JUMP JUMPDEST JUMPDEST PUSH2 0xAF4 DUP7 DUP3 DUP8 ADD PUSH2 0xA56 JUMP JUMPDEST SWAP3 POP POP PUSH1 0x40 DUP5 ADD CALLDATALOAD PUSH8 0xFFFFFFFFFFFFFFFF DUP2 GT ISZERO PUSH2 0xB15 JUMPI PUSH2 0xB14 PUSH2 0x777 JUMP JUMPDEST JUMPDEST PUSH2 0xB21 DUP7 DUP3 DUP8 ADD PUSH2 0xA56 JUMP JUMPDEST SWAP2 POP POP SWAP3 POP SWAP3 POP SWAP3 JUMP JUMPDEST PUSH32 0x496E646578206F7574206F6620626F756E647300000000000000000000000000 PUSH1 0x0 DUP3 ADD MSTORE POP JUMP JUMPDEST PUSH1 0x0 PUSH2 0xB61 PUSH1 0x13 DUP4 PUSH2 0x7F9 JUMP JUMPDEST SWAP2 POP PUSH2 0xB6C DUP3 PUSH2 0xB2B JUMP JUMPDEST PUSH1 0x20 DUP3 ADD SWAP1 POP SWAP2 SWAP1 POP JUMP JUMPDEST PUSH1 0x0 PUSH1 0x20 DUP3 ADD SWAP1 POP DUP2 DUP2 SUB PUSH1 0x0 DUP4 ADD MSTORE PUSH2 0xB90 DUP2 PUSH2 0xB54 JUMP JUMPDEST SWAP1 POP SWAP2 SWAP1 POP JUMP JUMPDEST PUSH32 0x4E487B7100000000000000000000000000000000000000000000000000000000 PUSH1 0x0 MSTORE PUSH1 0x32 PUSH1 0x4 MSTORE PUSH1 0x24 PUSH1 0x0 REVERT JUMPDEST PUSH32 0x4E487B7100000000000000000000000000000000000000000000000000000000 PUSH1 0x0 MSTORE PUSH1 0x22 PUSH1 0x4 MSTORE PUSH1 0x24 PUSH1 0x0 REVERT JUMPDEST PUSH1 0x0 PUSH1 0x2 DUP3 DIV SWAP1 POP PUSH1 0x1 DUP3 AND DUP1 PUSH2 0xC0D JUMPI PUSH1 0x7F DUP3 AND SWAP2 POP JUMPDEST PUSH1 0x20 DUP3 LT DUP2 SUB PUSH2 0xC20 JUMPI PUSH2 0xC1F PUSH2 0xBC6 JUMP JUMPDEST JUMPDEST POP SWAP2 SWAP1 POP JUMP JUMPDEST PUSH32 0x4E6F7420617574686F72697A6564000000000000000000000000000000000000 PUSH1 0x0 DUP3 ADD MSTORE POP JUMP JUMPDEST PUSH1 0x0 PUSH2 0xC5C PUSH1 0xE DUP4 PUSH2 0x7F9 JUMP JUMPDEST SWAP2 POP PUSH2 0xC67 DUP3 PUSH2 0xC26 JUMP JUMPDEST PUSH1 0x20 DUP3 ADD SWAP1 POP SWAP2 SWAP1 POP JUMP JUMPDEST PUSH1 0x0 PUSH1 0x20 DUP3 ADD SWAP1 POP DUP2 DUP2 SUB PUSH1 0x0 DUP4 ADD MSTORE PUSH2 0xC8B DUP2 PUSH2 0xC4F JUMP JUMPDEST SWAP1 POP SWAP2 SWAP1 POP JUMP JUMPDEST PUSH32 0x53746F72616765206C696D697420726561636865640000000000000000000000 PUSH1 0x0 DUP3 ADD MSTORE POP JUMP JUMPDEST PUSH1 0x0 PUSH2 0xCC8 PUSH1 0x15 DUP4 PUSH2 0x7F9 JUMP JUMPDEST SWAP2 POP PUSH2 0xCD3 DUP3 PUSH2 0xC92 JUMP JUMPDEST PUSH1 0x20 DUP3 ADD SWAP1 POP SWAP2 SWAP1 POP JUMP JUMPDEST PUSH1 0x0 PUSH1 0x20 DUP3 ADD SWAP1 POP DUP2 DUP2 SUB PUSH1 0x0 DUP4 ADD MSTORE PUSH2 0xCF7 DUP2 PUSH2 0xCBB JUMP JUMPDEST SWAP1 POP SWAP2 SWAP1 POP JUMP JUMPDEST PUSH1 0x0 DUP2 SWAP1 POP DUP2 PUSH1 0x0 MSTORE PUSH1 0x20 PUSH1 0x0 KECCAK256 SWAP1 POP SWAP2 SWAP1 POP JUMP JUMPDEST PUSH1 0x0 PUSH1 0x20 PUSH1 0x1F DUP4 ADD DIV SWAP1 POP SWAP2 SWAP1 POP JUMP JUMPDEST PUSH1 0x0 DUP3 DUP3 SHL SWAP1 POP SWAP3 SWAP2 POP POP JUMP JUMPDEST PUSH1 0x0 PUSH1 0x8 DUP4 MUL PUSH2 0xD60 PUSH32 0xFFFFFFFFFFFFFFFFFFFFFFFFFFFFFFFFFFFFFFFFFFFFFFFFFFFFFFFFFFFFFFFF DUP3 PUSH2 0xD23 JUMP JUMPDEST PUSH2 0xD6A DUP7 DUP4 PUSH2 0xD23 JUMP JUMPDEST SWAP6 POP DUP1 NOT DUP5 AND SWAP4 POP DUP1 DUP7 AND DUP5 OR SWAP3 POP POP POP SWAP4 SWAP3 POP POP POP JUMP JUMPDEST PUSH1 0x0 DUP2 SWAP1 POP SWAP2 SWAP1 POP JUMP JUMPDEST PUSH1 0x0 PUSH2 0xDA7 PUSH2 0xDA2 PUSH2 0xD9D DUP5 PUSH2 0x77C JUMP JUMPDEST PUSH2 0xD82 JUMP JUMPDEST PUSH2 0x77C JUMP JUMPDEST SWAP1 POP SWAP2 SWAP1 POP JUMP JUMPDEST PUSH1 0x0 DUP2 SWAP1 POP SWAP2 SWAP1 POP JUMP JUMPDEST PUSH2 0xDC1 DUP4 PUSH2 0xD8C JUMP JUMPDEST PUSH2 0xDD5 PUSH2 0xDCD DUP3 PUSH2 0xDAE JUMP JUMPDEST DUP5 DUP5 SLOAD PUSH2 0xD30 JUMP JUMPDEST DUP3 SSTORE POP POP POP POP JUMP JUMPDEST PUSH1 0x0 SWAP1 JUMP JUMPDEST PUSH2 0xDEA PUSH2 0xDDD JUMP JUMPDEST PUSH2 0xDF5 DUP2 DUP5 DUP5 PUSH2 0xDB8 JUMP JUMPDEST POP POP POP JUMP JUMPDEST PUSH1 0x0 JUMPDEST DUP3 DUP2 LT ISZERO PUSH2 0xE1D JUMPI PUSH2 0xE12 PUSH1 0x0 DUP3 DUP5 ADD PUSH2 0xDE2 JUMP JUMPDEST PUSH1 0x1 DUP2 ADD SWAP1 POP PUSH2 0xDFD JUMP JUMPDEST POP POP POP JUMP JUMPDEST PUSH1 0x1F DUP3 GT ISZERO PUSH2 0xE71 JUMPI DUP3 DUP3 GT ISZERO PUSH2 0xE70 JUMPI PUSH2 0xE3C DUP2 PUSH2 0xCFE JUMP JUMPDEST PUSH2 0xE45 DUP4 PUSH2 0xD13 JUMP JUMPDEST PUSH2 0xE4E DUP6 PUSH2 0xD13 JUMP JUMPDEST PUSH1 0x20 DUP7 LT ISZERO PUSH2 0xE5C JUMPI PUSH1 0x0 SWAP1 POP JUMPDEST DUP1 DUP4 ADD PUSH2 0xE6B DUP3 DUP5 SUB DUP3 PUSH2 0xDFA JUMP JUMPDEST POP POP POP POP JUMPDEST JUMPDEST POP POP POP JUMP JUMPDEST PUSH1 0x0 DUP3 DUP3 SHR SWAP1 POP SWAP3 SWAP2 POP POP JUMP JUMPDEST PUSH1 0x0 PUSH2 0xE94 PUSH1 0x0 NOT DUP5 PUSH1 0x8 MUL PUSH2 0xE76 JUMP JUMPDEST NOT DUP1 DUP4 AND SWAP2 POP POP SWAP3 SWAP2 POP POP JUMP JUMPDEST PUSH1 0x0 PUSH2 0xEAD DUP4 DUP4 PUSH2 0xE83 JUMP JUMPDEST SWAP2 POP DUP3 PUSH1 0x2 MUL DUP3 OR SWAP1 POP SWAP3 SWAP2 POP POP JUMP JUMPDEST PUSH2 0xEC6 DUP3 PUSH2 0x7EE JUMP JUMPDEST PUSH8 0xFFFFFFFFFFFFFFFF DUP2 GT ISZERO PUSH2 0xEDF JUMPI PUSH2 0xEDE PUSH2 0x959 JUMP JUMPDEST JUMPDEST PUSH2 0xEE9 DUP3 SLOAD PUSH2 0xBF5 JUMP JUMPDEST PUSH2 0xEF4 DUP3 DUP3 DUP6 PUSH2 0xE22 JUMP JUMPDEST PUSH1 0x0 PUSH1 0x20 SWAP1 POP PUSH1 0x1F DUP4 GT PUSH1 0x1 DUP2 EQ PUSH2 0xF27 JUMPI PUSH1 0x0 DUP5 ISZERO PUSH2 0xF15 JUMPI DUP3 DUP8 ADD MLOAD SWAP1 POP JUMPDEST PUSH2 0xF1F DUP6 DUP3 PUSH2 0xEA1 JUMP JUMPDEST DUP7 SSTORE POP PUSH2 0xF87 JUMP JUMPDEST PUSH1 0x1F NOT DUP5 AND PUSH2 0xF35 DUP7 PUSH2 0xCFE JUMP JUMPDEST PUSH1 0x0 JUMPDEST DUP3 DUP2 LT ISZERO PUSH2 0xF5D JUMPI DUP5 DUP10 ADD MLOAD DUP3 SSTORE PUSH1 0x1 DUP3 ADD SWAP2 POP PUSH1 0x20 DUP6 ADD SWAP5 POP PUSH1 0x20 DUP2 ADD SWAP1 POP PUSH2 0xF38 JUMP JUMPDEST DUP7 DUP4 LT ISZERO PUSH2 0xF7A JUMPI DUP5 DUP10 ADD MLOAD PUSH2 0xF76 PUSH1 0x1F DUP10 AND DUP3 PUSH2 0xE83 JUMP JUMPDEST DUP4 SSTORE POP JUMPDEST PUSH1 0x1 PUSH1 0x2 DUP9 MUL ADD DUP9 SSTORE POP POP POP JUMPDEST POP POP POP POP POP POP JUMP INVALID LOG2 PUSH5 0x6970667358 0x22 SLT KECCAK256 SWAP7 0x26 0x2F PUSH23 0xD6F5C940E54D7582E57AF9357712E6093EC28EE1E822D4 DUP2 EXTCODECOPY LOG4 ADDMOD EXTCODESIZE PUSH5 0x736F6C6343 STOP ADDMOD 0x22 STOP CALLER "
				},
				"gasEstimates": {
					"creation": {
						"codeDepositCost": "807400",
						"executionCost": "25110",
						"totalCost": "832510"
					},
					"external": {
						"MAX_ENTRIES()": "351",
						"dataRecords(uint256)": "infinite",
						"getRecord(uint256)": "infinite",
						"getTotalRecords()": "2445",
						"owner()": "2558",
						"storeData(string,string,string)": "infinite"
					}
				},
				"methodIdentifiers": {
					"MAX_ENTRIES()": "7d4cb964",
					"dataRecords(uint256)": "c8592e0b",
					"getRecord(uint256)": "03e9e609",
					"getTotalRecords()": "0aeacb5e",
					"owner()": "8da5cb5b",
					"storeData(string,string,string)": "d4001ef2"
				}
			},
			"storageLayout": {
				"storage": [
					{
						"astId": 17,
						"contract": "IoTDataStorage.sol:IoTDataStorage",
						"label": "dataRecords",
						"offset": 0,
						"slot": "0",
						"type": "t_array(t_struct(IoTData)10_storage)dyn_storage"
					},
					{
						"astId": 19,
						"contract": "IoTDataStorage.sol:IoTDataStorage",
						"label": "owner",
						"offset": 0,
						"slot": "1",
						"type": "t_address"
					}
				],
				"types": {
					"t_address": {
						"encoding": "inplace",
						"label": "address",
						"numberOfBytes": "20"
					},
					"t_array(t_struct(IoTData)10_storage)dyn_storage": {
						"base": "t_struct(IoTData)10_storage",
						"encoding": "dynamic_array",
						"label": "struct IoTDataStorage.IoTData[]",
						"numberOfBytes": "32"
					},
					"t_string_storage": {
						"encoding": "bytes",
						"label": "string",
						"numberOfBytes": "32"
					},
					"t_struct(IoTData)10_storage": {
						"encoding": "inplace",
						"label": "struct IoTDataStorage.IoTData",
						"members": [
							{
								"astId": 3,
								"contract": "IoTDataStorage.sol:IoTDataStorage",
								"label": "timestamp",
								"offset": 0,
								"slot": "0",
								"type": "t_uint256"
							},
							{
								"astId": 5,
								"contract": "IoTDataStorage.sol:IoTDataStorage",
								"label": "deviceId",
								"offset": 0,
								"slot": "1",
								"type": "t_string_storage"
							},
							{
								"astId": 7,
								"contract": "IoTDataStorage.sol:IoTDataStorage",
								"label": "dataType",
								"offset": 0,
								"slot": "2",
								"type": "t_string_storage"
							},
							{
								"astId": 9,
								"contract": "IoTDataStorage.sol:IoTDataStorage",
								"label": "dataValue",
								"offset": 0,
								"slot": "3",
								"type": "t_string_storage"
							}
						],
						"numberOfBytes": "128"
					},
					"t_uint256": {
						"encoding": "inplace",
						"label": "uint256",
						"numberOfBytes": "32"
					}
				}
			},
			"userdoc": {
				"kind": "user",
				"methods": {},
				"version": 1
			}
		}
	}
}